{
  "address": "0x81dE36394442EeADf3AAd0A835f99bEC45B55789",
  "abi": [
    {
      "inputs": [
        {
          "internalType": "address",
          "name": "owner",
          "type": "address"
        },
        {
          "internalType": "string",
          "name": "_name",
          "type": "string"
        },
        {
          "internalType": "string",
          "name": "_symbol",
          "type": "string"
        },
        {
          "internalType": "contract ISuperfluid",
          "name": "host",
          "type": "address"
        },
        {
          "internalType": "contract IConstantFlowAgreementV1",
          "name": "cfa",
          "type": "address"
        },
        {
          "internalType": "contract ISuperToken",
          "name": "acceptedToken",
          "type": "address"
        },
        {
          "internalType": "address",
          "name": "receiver",
          "type": "address"
        }
      ],
      "stateMutability": "nonpayable",
      "type": "constructor"
    },
    {
      "anonymous": false,
      "inputs": [
        {
          "indexed": true,
          "internalType": "address",
          "name": "owner",
          "type": "address"
        },
        {
          "indexed": true,
          "internalType": "address",
          "name": "approved",
          "type": "address"
        },
        {
          "indexed": true,
          "internalType": "uint256",
          "name": "tokenId",
          "type": "uint256"
        }
      ],
      "name": "Approval",
      "type": "event"
    },
    {
      "anonymous": false,
      "inputs": [
        {
          "indexed": true,
          "internalType": "address",
          "name": "owner",
          "type": "address"
        },
        {
          "indexed": true,
          "internalType": "address",
          "name": "operator",
          "type": "address"
        },
        {
          "indexed": false,
          "internalType": "bool",
          "name": "approved",
          "type": "bool"
        }
      ],
      "name": "ApprovalForAll",
      "type": "event"
    },
    {
      "anonymous": false,
      "inputs": [
        {
          "indexed": false,
          "internalType": "address",
          "name": "receiver",
          "type": "address"
        }
      ],
      "name": "ReceiverChanged",
      "type": "event"
    },
    {
      "anonymous": false,
      "inputs": [
        {
          "indexed": true,
          "internalType": "address",
          "name": "from",
          "type": "address"
        },
        {
          "indexed": true,
          "internalType": "address",
          "name": "to",
          "type": "address"
        },
        {
          "indexed": true,
          "internalType": "uint256",
          "name": "tokenId",
          "type": "uint256"
        }
      ],
      "name": "Transfer",
      "type": "event"
    },
    {
      "inputs": [],
      "name": "_host",
      "outputs": [
        {
          "internalType": "contract ISuperfluid",
          "name": "",
          "type": "address"
        }
      ],
      "stateMutability": "view",
      "type": "function"
    },
    {
      "inputs": [],
      "name": "_receiver",
      "outputs": [
        {
          "internalType": "address",
          "name": "",
          "type": "address"
        }
      ],
      "stateMutability": "view",
      "type": "function"
    },
    {
      "inputs": [
        {
          "internalType": "contract ISuperToken",
          "name": "_superToken",
          "type": "address"
        },
        {
          "internalType": "address",
          "name": "_agreementClass",
          "type": "address"
        },
        {
          "internalType": "bytes32",
          "name": "",
          "type": "bytes32"
        },
        {
          "internalType": "bytes",
          "name": "",
          "type": "bytes"
        },
        {
          "internalType": "bytes",
          "name": "",
          "type": "bytes"
        },
        {
          "internalType": "bytes",
          "name": "_ctx",
          "type": "bytes"
        }
      ],
      "name": "afterAgreementCreated",
      "outputs": [
        {
          "internalType": "bytes",
          "name": "newCtx",
          "type": "bytes"
        }
      ],
      "stateMutability": "nonpayable",
      "type": "function"
    },
    {
      "inputs": [
        {
          "internalType": "contract ISuperToken",
          "name": "_superToken",
          "type": "address"
        },
        {
          "internalType": "address",
          "name": "_agreementClass",
          "type": "address"
        },
        {
          "internalType": "bytes32",
          "name": "",
          "type": "bytes32"
        },
        {
          "internalType": "bytes",
          "name": "",
          "type": "bytes"
        },
        {
          "internalType": "bytes",
          "name": "",
          "type": "bytes"
        },
        {
          "internalType": "bytes",
          "name": "_ctx",
          "type": "bytes"
        }
      ],
      "name": "afterAgreementTerminated",
      "outputs": [
        {
          "internalType": "bytes",
          "name": "newCtx",
          "type": "bytes"
        }
      ],
      "stateMutability": "nonpayable",
      "type": "function"
    },
    {
      "inputs": [
        {
          "internalType": "contract ISuperToken",
          "name": "_superToken",
          "type": "address"
        },
        {
          "internalType": "address",
          "name": "_agreementClass",
          "type": "address"
        },
        {
          "internalType": "bytes32",
          "name": "",
          "type": "bytes32"
        },
        {
          "internalType": "bytes",
          "name": "",
          "type": "bytes"
        },
        {
          "internalType": "bytes",
          "name": "",
          "type": "bytes"
        },
        {
          "internalType": "bytes",
          "name": "_ctx",
          "type": "bytes"
        }
      ],
      "name": "afterAgreementUpdated",
      "outputs": [
        {
          "internalType": "bytes",
          "name": "newCtx",
          "type": "bytes"
        }
      ],
      "stateMutability": "nonpayable",
      "type": "function"
    },
    {
      "inputs": [
        {
          "internalType": "address",
          "name": "to",
          "type": "address"
        },
        {
          "internalType": "uint256",
          "name": "tokenId",
          "type": "uint256"
        }
      ],
      "name": "approve",
      "outputs": [],
      "stateMutability": "nonpayable",
      "type": "function"
    },
    {
      "inputs": [
        {
          "internalType": "address",
          "name": "owner",
          "type": "address"
        }
      ],
      "name": "balanceOf",
      "outputs": [
        {
          "internalType": "uint256",
          "name": "",
          "type": "uint256"
        }
      ],
      "stateMutability": "view",
      "type": "function"
    },
    {
      "inputs": [],
      "name": "baseExtension",
      "outputs": [
        {
          "internalType": "string",
          "name": "",
          "type": "string"
        }
      ],
      "stateMutability": "view",
      "type": "function"
    },
    {
      "inputs": [],
      "name": "baseURI",
      "outputs": [
        {
          "internalType": "string",
          "name": "",
          "type": "string"
        }
      ],
      "stateMutability": "view",
      "type": "function"
    },
    {
      "inputs": [
        {
          "internalType": "contract ISuperToken",
          "name": "",
          "type": "address"
        },
        {
          "internalType": "address",
          "name": "",
          "type": "address"
        },
        {
          "internalType": "bytes32",
          "name": "",
          "type": "bytes32"
        },
        {
          "internalType": "bytes",
          "name": "",
          "type": "bytes"
        },
        {
          "internalType": "bytes",
          "name": "",
          "type": "bytes"
        }
      ],
      "name": "beforeAgreementCreated",
      "outputs": [
        {
          "internalType": "bytes",
          "name": "",
          "type": "bytes"
        }
      ],
      "stateMutability": "view",
      "type": "function"
    },
    {
      "inputs": [
        {
          "internalType": "contract ISuperToken",
          "name": "",
          "type": "address"
        },
        {
          "internalType": "address",
          "name": "",
          "type": "address"
        },
        {
          "internalType": "bytes32",
          "name": "",
          "type": "bytes32"
        },
        {
          "internalType": "bytes",
          "name": "",
          "type": "bytes"
        },
        {
          "internalType": "bytes",
          "name": "",
          "type": "bytes"
        }
      ],
      "name": "beforeAgreementTerminated",
      "outputs": [
        {
          "internalType": "bytes",
          "name": "",
          "type": "bytes"
        }
      ],
      "stateMutability": "view",
      "type": "function"
    },
    {
      "inputs": [
        {
          "internalType": "contract ISuperToken",
          "name": "",
          "type": "address"
        },
        {
          "internalType": "address",
          "name": "",
          "type": "address"
        },
        {
          "internalType": "bytes32",
          "name": "",
          "type": "bytes32"
        },
        {
          "internalType": "bytes",
          "name": "",
          "type": "bytes"
        },
        {
          "internalType": "bytes",
          "name": "",
          "type": "bytes"
        }
      ],
      "name": "beforeAgreementUpdated",
      "outputs": [
        {
          "internalType": "bytes",
          "name": "",
          "type": "bytes"
        }
      ],
      "stateMutability": "view",
      "type": "function"
    },
    {
      "inputs": [
        {
          "internalType": "string",
          "name": "_tokenURI",
          "type": "string"
        }
      ],
      "name": "changeURI",
      "outputs": [],
      "stateMutability": "nonpayable",
      "type": "function"
    },
    {
      "inputs": [],
      "name": "currentReceiver",
      "outputs": [
        {
          "internalType": "uint256",
          "name": "startTime",
          "type": "uint256"
        },
        {
          "internalType": "address",
          "name": "receiver",
          "type": "address"
        },
        {
          "internalType": "int96",
          "name": "flowRate",
          "type": "int96"
        }
      ],
      "stateMutability": "view",
      "type": "function"
    },
    {
      "inputs": [
        {
          "internalType": "uint256",
          "name": "_tokenId",
          "type": "uint256"
        }
      ],
      "name": "destroyNFT",
      "outputs": [],
      "stateMutability": "nonpayable",
      "type": "function"
    },
    {
      "inputs": [
        {
          "internalType": "uint256",
          "name": "tokenId",
          "type": "uint256"
        }
      ],
      "name": "getApproved",
      "outputs": [
        {
          "internalType": "address",
          "name": "",
          "type": "address"
        }
      ],
      "stateMutability": "view",
      "type": "function"
    },
    {
      "inputs": [
        {
          "internalType": "address",
          "name": "owner",
          "type": "address"
        },
        {
          "internalType": "address",
          "name": "operator",
          "type": "address"
        }
      ],
      "name": "isApprovedForAll",
      "outputs": [
        {
          "internalType": "bool",
          "name": "",
          "type": "bool"
        }
      ],
      "stateMutability": "view",
      "type": "function"
    },
    {
      "inputs": [],
      "name": "name",
      "outputs": [
        {
          "internalType": "string",
          "name": "",
          "type": "string"
        }
      ],
      "stateMutability": "view",
      "type": "function"
    },
    {
      "inputs": [
        {
          "internalType": "uint256",
          "name": "tokenId",
          "type": "uint256"
        }
      ],
      "name": "ownerOf",
      "outputs": [
        {
          "internalType": "address",
          "name": "",
          "type": "address"
        }
      ],
      "stateMutability": "view",
      "type": "function"
    },
    {
      "inputs": [
        {
          "internalType": "address",
          "name": "from",
          "type": "address"
        },
        {
          "internalType": "address",
          "name": "to",
          "type": "address"
        },
        {
          "internalType": "uint256",
          "name": "tokenId",
          "type": "uint256"
        }
      ],
      "name": "safeTransferFrom",
      "outputs": [],
      "stateMutability": "nonpayable",
      "type": "function"
    },
    {
      "inputs": [
        {
          "internalType": "address",
          "name": "from",
          "type": "address"
        },
        {
          "internalType": "address",
          "name": "to",
          "type": "address"
        },
        {
          "internalType": "uint256",
          "name": "tokenId",
          "type": "uint256"
        },
        {
          "internalType": "bytes",
          "name": "_data",
          "type": "bytes"
        }
      ],
      "name": "safeTransferFrom",
      "outputs": [],
      "stateMutability": "nonpayable",
      "type": "function"
    },
    {
      "inputs": [
        {
          "internalType": "address",
          "name": "operator",
          "type": "address"
        },
        {
          "internalType": "bool",
          "name": "approved",
          "type": "bool"
        }
      ],
      "name": "setApprovalForAll",
      "outputs": [],
      "stateMutability": "nonpayable",
      "type": "function"
    },
    {
      "inputs": [
        {
          "internalType": "bytes4",
          "name": "interfaceId",
          "type": "bytes4"
        }
      ],
      "name": "supportsInterface",
      "outputs": [
        {
          "internalType": "bool",
          "name": "",
          "type": "bool"
        }
      ],
      "stateMutability": "view",
      "type": "function"
    },
    {
      "inputs": [],
      "name": "symbol",
      "outputs": [
        {
          "internalType": "string",
          "name": "",
          "type": "string"
        }
      ],
      "stateMutability": "view",
      "type": "function"
    },
    {
      "inputs": [
        {
          "internalType": "uint256",
          "name": "index",
          "type": "uint256"
        }
      ],
      "name": "tokenByIndex",
      "outputs": [
        {
          "internalType": "uint256",
          "name": "",
          "type": "uint256"
        }
      ],
      "stateMutability": "view",
      "type": "function"
    },
    {
      "inputs": [
        {
          "internalType": "address",
          "name": "owner",
          "type": "address"
        },
        {
          "internalType": "uint256",
          "name": "index",
          "type": "uint256"
        }
      ],
      "name": "tokenOfOwnerByIndex",
      "outputs": [
        {
          "internalType": "uint256",
          "name": "",
          "type": "uint256"
        }
      ],
      "stateMutability": "view",
      "type": "function"
    },
    {
      "inputs": [
        {
          "internalType": "uint256",
          "name": "tokenId",
          "type": "uint256"
        }
      ],
      "name": "tokenURI",
      "outputs": [
        {
          "internalType": "string",
          "name": "",
          "type": "string"
        }
      ],
      "stateMutability": "view",
      "type": "function"
    },
    {
      "inputs": [],
      "name": "totalSupply",
      "outputs": [
        {
          "internalType": "uint256",
          "name": "",
          "type": "uint256"
        }
      ],
      "stateMutability": "view",
      "type": "function"
    },
    {
      "inputs": [
        {
          "internalType": "address",
          "name": "from",
          "type": "address"
        },
        {
          "internalType": "address",
          "name": "to",
          "type": "address"
        },
        {
          "internalType": "uint256",
          "name": "tokenId",
          "type": "uint256"
        }
      ],
      "name": "transferFrom",
      "outputs": [],
      "stateMutability": "nonpayable",
      "type": "function"
    },
    {
      "inputs": [],
      "name": "uData",
      "outputs": [
        {
          "internalType": "uint8",
          "name": "appLevel",
          "type": "uint8"
        },
        {
          "internalType": "uint8",
          "name": "callType",
          "type": "uint8"
        },
        {
          "internalType": "uint256",
          "name": "timestamp",
          "type": "uint256"
        },
        {
          "internalType": "address",
          "name": "msgSender",
          "type": "address"
        },
        {
          "internalType": "bytes4",
          "name": "agreementSelector",
          "type": "bytes4"
        },
        {
          "internalType": "bytes",
          "name": "userData",
          "type": "bytes"
        },
        {
          "internalType": "uint256",
          "name": "appAllowanceGranted",
          "type": "uint256"
        },
        {
          "internalType": "uint256",
          "name": "appAllowanceWanted",
          "type": "uint256"
        },
        {
          "internalType": "int256",
          "name": "appAllowanceUsed",
          "type": "int256"
        },
        {
          "internalType": "address",
          "name": "appAddress",
          "type": "address"
        },
        {
          "internalType": "contract ISuperfluidToken",
          "name": "appAllowanceToken",
          "type": "address"
        }
      ],
      "stateMutability": "view",
      "type": "function"
    },
    {
      "inputs": [],
      "name": "userData",
      "outputs": [
        {
          "internalType": "string",
          "name": "",
          "type": "string"
        }
      ],
      "stateMutability": "view",
      "type": "function"
    }
  ],
  "transactionHash": "0x7c30b64ded4ee0729fd1e3a27ffadf485763411d9b48adcab1fa9f0897b39165",
  "args": [
    "0x9263bFf6ACCb60E83254E95220e7637465298171",
    "BrightIDStream",
    "BID",
    "0xEB796bdb90fFA0f28255275e16936D25d3418603",
    "0x49e565Ed1bdc17F3d220f72DF0857C26FA83F873",
    "0x5D8B4C2554aeB7e86F387B4d6c00Ac33499Ed01f",
    "0x9263bFf6ACCb60E83254E95220e7637465298171"
  ],
  "numDeployments": 1,
  "solcInputHash": "d224aa80f958b5c38538dd3572fe5f75",
  "bytecode": "0x60c06040526005608081905264173539b7b760d91b60a09081526200002891600e91906200088a565b503480156200003657600080fd5b5060405162004515380380620045158339810160408190526200005991620009a7565b85856200006d6301ffc9a760e01b62000205565b8151620000829060069060208501906200088a565b508051620000989060079060208401906200088a565b50620000ab6380ac58cd60e01b62000205565b620000bd635b5e139f60e01b62000205565b620000cf63780e9d6360e01b62000205565b50506001600160a01b038416620000e257fe5b6001600160a01b038316620000f357fe5b6001600160a01b0382166200010457fe5b6001600160a01b0381166200011557fe5b600a80546001600160a01b03199081166001600160a01b038781169190911792839055600b80548316878316179055600c80548316868316179055600d8054909216848216179091556040516315a722b960e31b8152641500000001929091169063ad3915c8906200018c90849060040162000d76565b600060405180830381600087803b158015620001a757600080fd5b505af1158015620001bc573d6000803e3d6000fd5b50505050620001d38860016200026060201b60201c565b620001f76040518060600160405280603c8152602001620044d9603c91396200034e565b505050505050505062000dc8565b6001600160e01b031980821614156200023b5760405162461bcd60e51b8152600401620002329062000c5a565b60405180910390fd5b6001600160e01b0319166000908152602081905260409020805460ff19166001179055565b6001600160a01b038216620002895760405162461bcd60e51b8152600401620002329062000d41565b620002948162000367565b15620002b45760405162461bcd60e51b8152600401620002329062000c91565b620002c2600083836200038a565b6001600160a01b0382166000908152600160209081526040909120620002f3918390620012d36200039a821b17901c565b506200031181836002620003af60201b620012df179092919060201c565b5060405181906001600160a01b038416906000907fddf252ad1be2c89b69c2b068fc378daa952ba7f163c4a11628f55a4df523b3ef908290a45050565b8051620003639060099060208401906200088a565b5050565b600062000384826002620003cf60201b620012fd1790919060201c565b92915050565b6200039582620003dd565b505050565b6000620003a8838362000788565b9392505050565b6000620003c784846001600160a01b038516620007d7565b949350505050565b6000620003a8838362000872565b6001600160a01b038116620004065760405162461bcd60e51b8152600401620002329062000cc8565b600a54604051631e51d6a760e11b81526001600160a01b0390911690633ca3ad4e906200043890849060040162000b39565b60206040518083038186803b1580156200045157600080fd5b505afa15801562000466573d6000803e3d6000fd5b505050506040513d601f19601f820116820180604052508101906200048c919062000a7b565b15620004ac5760405162461bcd60e51b8152600401620002329062000cff565b600d546001600160a01b0382811691161415620004c95762000785565b600a54600b54600c54600d546040805160008152602081019091526001600160a01b03948516946339255d5b94811693635a5999e360e11b936200051a939183169230929116906044810162000bed565b60408051601f198184030181529181526020820180516001600160e01b03166001600160e01b03199485161790525160e085901b909216825262000562929160040162000b91565b600060405180830381600087803b1580156200057d57600080fd5b505af115801562000592573d6000803e3d6000fd5b505050506040513d6000823e601f3d908101601f19168201604052620005bc919081019062000a9d565b50600a54600b54600c5460405163e8e7e2d160e01b81526001600160a01b03938416936339255d5b9381169263317e182f60e11b929116908690849063e8e7e2d19062000610908590309060040162000bd3565b60206040518083038186803b1580156200062957600080fd5b505afa1580156200063e573d6000803e3d6000fd5b505050506040513d601f19601f8201168201806040525081019062000664919062000ad3565b604051602401620006789392919062000c23565b60408051601f19818403018152918152602080830180516001600160e01b03166001600160e01b03199586161790528151600081529081019182905260e086901b9093169052620006ce92916024810162000b4d565b600060405180830381600087803b158015620006e957600080fd5b505af1158015620006fe573d6000803e3d6000fd5b505050506040513d6000823e601f3d908101601f1916820160405262000728919081019062000a9d565b50600d80546001600160a01b0319166001600160a01b0383811691909117918290556040517f7dfb1d59db37a3fd2e15e796c189dcab714cdbb18650d68a1de58f8fa60718c9926200077c92169062000b39565b60405180910390a15b50565b600062000796838362000872565b620007ce5750815460018181018455600084815260208082209093018490558454848252828601909352604090209190915562000384565b50600062000384565b6000828152600184016020526040812054806200083e575050604080518082018252838152602080820184815286546001818101895560008981528481209551600290930290950191825591519082015586548684528188019092529290912055620003a8565b828560000160018303815481106200085257fe5b9060005260206000209060020201600101819055506000915050620003a8565b60009081526001919091016020526040902054151590565b828054600181600116156101000203166002900490600052602060002090601f016020900481019282601f10620008cd57805160ff1916838001178555620008fd565b82800160010185558215620008fd579182015b82811115620008fd578251825591602001919060010190620008e0565b506200090b9291506200090f565b5090565b5b808211156200090b576000815560010162000910565b600082601f83011262000937578081fd5b81516001600160401b03808211156200094e578283fd5b604051601f8301601f1916810160200182811182821017156200096f578485fd5b6040528281529250828483016020018610156200098b57600080fd5b6200099e83602083016020880162000d7f565b50505092915050565b600080600080600080600060e0888a031215620009c2578283fd5b8751620009cf8162000db2565b60208901519097506001600160401b0380821115620009ec578485fd5b620009fa8b838c0162000926565b975060408a015191508082111562000a10578485fd5b5062000a1f8a828b0162000926565b955050606088015162000a328162000db2565b608089015190945062000a458162000db2565b60a089015190935062000a588162000db2565b60c089015190925062000a6b8162000db2565b8091505092959891949750929550565b60006020828403121562000a8d578081fd5b81518015158114620003a8578182fd5b60006020828403121562000aaf578081fd5b81516001600160401b0381111562000ac5578182fd5b620003c78482850162000926565b60006020828403121562000ae5578081fd5b815180600b0b8114620003a8578182fd5b6000815180845262000b1081602086016020860162000d7f565b601f01601f19169290920160200192915050565b6002815261060f60f31b602082015260400190565b6001600160a01b0391909116815260200190565b6001600160a01b038416815260606020820181905260009062000b739083018562000af6565b828103604084015262000b87818562000af6565b9695505050505050565b6001600160a01b038316815260606020820181905260009062000bb79083018462000af6565b828103604084015262000bca8162000b24565b95945050505050565b6001600160a01b0392831681529116602082015260400190565b6001600160a01b03858116825284811660208301528316604082015260806060820181905260009062000b879083018462000af6565b6001600160a01b03848116825283166020820152600b82900b604082015260806060820181905260009062000bca90830162000b24565b6020808252601c908201527f4552433136353a20696e76616c696420696e7465726661636520696400000000604082015260600190565b6020808252601c908201527f4552433732313a20746f6b656e20616c7265616479206d696e74656400000000604082015260600190565b6020808252601c908201527f4e6577207265636569766572206973207a65726f206164647265737300000000604082015260600190565b60208082526022908201527f4e65772072656365697665722063616e206e6f74206265206120737570657241604082015261070760f41b606082015260800190565b6020808252818101527f4552433732313a206d696e7420746f20746865207a65726f2061646472657373604082015260600190565b90815260200190565b60005b8381101562000d9c57818101518382015260200162000d82565b8381111562000dac576000848401525b50505050565b6001600160a01b03811681146200078557600080fd5b6137018062000dd86000396000f3fe608060405234801561001057600080fd5b50600436106101e55760003560e01c80636352211e1161010f578063bea6998f116100a2578063d86ed3e511610071578063d86ed3e5146103d6578063e5e01c11146103e9578063e985e9c5146103fc578063ecf08fae1461040f576101e5565b8063bea6998f146103a0578063c40412b5146103a8578063c6682862146103bb578063c87b56dd146103c3576101e5565b8063884d1f40116100de578063884d1f401461035f57806395d89b4114610372578063a22cb4651461037a578063b88d4fde1461038d576101e5565b80636352211e146103295780636c0360eb1461033c57806370a0823114610344578063852e5a0a14610357576101e5565b806323b872dd1161018757806342842e0e1161015657806342842e0e146102dd5780634f6ccce7146102f057806353c11f99146103035780635f9e7d7714610316576101e5565b806323b872dd1461028d57806328d2bf94146102a05780632f745c59146102b757806330d9c915146102ca576101e5565b8063081812fc116101c3578063081812fc1461023d578063095ea7b31461025057806318160ddd14610265578063230dbd291461027a576101e5565b806301ffc9a7146101ea57806302964ff11461021357806306fdde0314610228575b600080fd5b6101fd6101f83660046127d5565b61042e565b60405161020a9190612c62565b60405180910390f35b61021b61044d565b60405161020a9190612c11565b61023061045c565b60405161020a9190612c9c565b61021b61024b366004612b60565b6104f2565b61026361025e366004612776565b61053e565b005b61026d6105d6565b60405161020a91906134d3565b61023061028836600461293d565b6105e7565b61026361029b36600461269f565b61082c565b6102a8610864565b60405161020a939291906134dc565b61026d6102c5366004612776565b610927565b6102306102d83660046128a1565b610952565b6102636102eb36600461269f565b61096c565b61026d6102fe366004612b60565b610987565b61023061031136600461293d565b61099d565b6102306103243660046128a1565b610a83565b61021b610337366004612b60565b610a9d565b610230610ac5565b61026d61035236600461264b565b610b26565b61021b610b6f565b61023061036d3660046128a1565b610b7e565b610230610b98565b610263610388366004612749565b610bf9565b61026361039b3660046126df565b610cc7565b610230610d06565b6102636103b6366004612b60565b610d94565b610230610dda565b6102306103d1366004612b60565b610e35565b6102306103e436600461293d565b610eae565b6102636103f7366004612a1f565b611179565b6101fd61040a366004612667565b6111bc565b6104176111ea565b60405161020a9b9a999897969594939291906134fe565b6001600160e01b03191660009081526020819052604090205460ff1690565b600d546001600160a01b031681565b60068054604080516020601f60026000196101006001881615020190951694909404938401819004810282018101909252828152606093909290918301828280156104e85780601f106104bd576101008083540402835291602001916104e8565b820191906000526020600020905b8154815290600101906020018083116104cb57829003601f168201915b5050505050905090565b60006104fd82611309565b6105225760405162461bcd60e51b815260040161051990613258565b60405180910390fd5b506000908152600460205260409020546001600160a01b031690565b600061054982610a9d565b9050806001600160a01b0316836001600160a01b0316141561057d5760405162461bcd60e51b81526004016105199061336c565b806001600160a01b031661058f611316565b6001600160a01b031614806105ab57506105ab8161040a611316565b6105c75760405162461bcd60e51b81526004016105199061312d565b6105d1838361131a565b505050565b60006105e26002611388565b905090565b606089896105f482611393565b6106105760405162461bcd60e51b815260040161051990612f1d565b610619816113a7565b6106355760405162461bcd60e51b815260040161051990612e8a565b600a546001600160a01b0316331461065f5760405162461bcd60e51b815260040161051990612fa7565b61066761240b565b600a54604051631fb6491d60e11b81526001600160a01b0390911690633f6c923a906106999089908990600401612c6d565b60006040518083038186803b1580156106b157600080fd5b505afa1580156106c5573d6000803e3d6000fd5b505050506040513d6000823e601f3d908101601f191682016040526106ed9190810190612a52565b8051600f805460208085015160ff1990921660ff9485161761ff0019166101009490921693909302178155604083015160105560608301516011805460808601516001600160a01b03199091166001600160a01b039093169290921763ffffffff60a01b1916600160a01b60e09390931c9290920291909117905560a08301518051939450849391926107869260129290910190612466565b5060c0820151600482015560e0820151600582015561010082015160068201556101208201516007820180546001600160a01b03199081166001600160a01b03938416179091556101409093015160089092018054909316911617905560a081015180516107fc9160209181018201910161280d565b805161081091601891602090910190612466565b5061081b8686611442565b9d9c50505050505050505050505050565b61083d610837611316565b82611801565b6108595760405162461bcd60e51b8152600401610519906133fc565b6105d183838361187e565b600d54600090819081906001600160a01b03161561092257600b54600c54600d54604051631cd43d1160e31b81526001600160a01b039384169363e6a1e888936108ba9390821692309290911690600401612d86565b60806040518083038186803b1580156108d257600080fd5b505afa1580156108e6573d6000803e3d6000fd5b505050506040513d601f19601f8201168201806040525081019061090a9190612b78565b5050600d549194506001600160a01b03909116925090505b909192565b6001600160a01b0382166000908152600160205260408120610949908361198c565b90505b92915050565b606060405162461bcd60e51b815260040161051990613484565b6105d183838360405180602001604052806000815250610cc7565b600080610995600284611998565b509392505050565b600a546060906001600160a01b031633146109ca5760405162461bcd60e51b815260040161051990612fa7565b6109d38a611393565b15806109e557506109e3896113a7565b155b15610a295782828080601f016020809104026020016040519081016040528093929190818152602001838380828437600092019190915250929350610a7692505050565b604080516020810191829052600090819052610a4791601891612466565b50610a696040518060600160405280603c8152602001613690603c91396119b6565b610a738383611442565b90505b9998505050505050505050565b606060405162461bcd60e51b815260040161051990612f54565b600061094c8260405180606001604052806029815260200161366760299139600291906119cd565b60098054604080516020601f60026000196101006001881615020190951694909404938401819004810282018101909252828152606093909290918301828280156104e85780601f106104bd576101008083540402835291602001916104e8565b60006001600160a01b038216610b4e5760405162461bcd60e51b81526004016105199061318a565b6001600160a01b038216600090815260016020526040902061094c90611388565b600a546001600160a01b031681565b606060405162461bcd60e51b8152600401610519906133ad565b60078054604080516020601f60026000196101006001881615020190951694909404938401819004810282018101909252828152606093909290918301828280156104e85780601f106104bd576101008083540402835291602001916104e8565b610c01611316565b6001600160a01b0316826001600160a01b03161415610c325760405162461bcd60e51b81526004016105199061302d565b8060056000610c3f611316565b6001600160a01b03908116825260208083019390935260409182016000908120918716808252919093529120805460ff191692151592909217909155610c83611316565b6001600160a01b03167f17307eab39ab6107e8899845ad3d59bd9653f200f220920489ca2b5937696c3183604051610cbb9190612c62565b60405180910390a35050565b610cd8610cd2611316565b83611801565b610cf45760405162461bcd60e51b8152600401610519906133fc565b610d00848484846119da565b50505050565b6018805460408051602060026001851615610100026000190190941693909304601f81018490048402820184019092528181529291830182828015610d8c5780601f10610d6157610100808354040283529160200191610d8c565b820191906000526020600020905b815481529060010190602001808311610d6f57829003601f168201915b505050505081565b610d9e6001610a9d565b6001600160a01b0316336001600160a01b031614610dce5760405162461bcd60e51b8152600401610519906132a4565b610dd781611a0d565b50565b600e805460408051602060026001851615610100026000190190941693909304601f81018490048402820184019092528181529291830182828015610d8c5780601f10610d6157610100808354040283529160200191610d8c565b6060610e4082611309565b610e5c5760405162461bcd60e51b81526004016105199061331d565b6060610e66610ac5565b90506000815111610e865760405180602001604052806000815250610ea7565b80604051602001610e979190612bf5565b6040516020818303038152906040525b9392505050565b60608989610ebb82611393565b610ed75760405162461bcd60e51b815260040161051990612f1d565b610ee0816113a7565b610efc5760405162461bcd60e51b815260040161051990612e8a565b600a546001600160a01b03163314610f265760405162461bcd60e51b815260040161051990612fa7565b610f2e61240b565b600a54604051631fb6491d60e11b81526001600160a01b0390911690633f6c923a90610f609089908990600401612c6d565b60006040518083038186803b158015610f7857600080fd5b505afa158015610f8c573d6000803e3d6000fd5b505050506040513d6000823e601f3d908101601f19168201604052610fb49190810190612a52565b8051600f805460208085015160ff1990921660ff9485161761ff0019166101009490921693909302178155604083015160105560608301516011805460808601516001600160a01b03199091166001600160a01b039093169290921763ffffffff60a01b1916600160a01b60e09390931c9290920291909117905560a083015180519394508493919261104d9260129290910190612466565b5060c0820151600482015560e0820151600582015561010082015160068201556101208201516007820180546001600160a01b03199081166001600160a01b03938416179091556101409093015160089092018054909316911617905560a081015180516110c39160209181018201910161280d565b80516110d791601891602090910190612466565b5060188054604080516020601f6002600019610100600188161502019095169490940493840181900481028201810190925282815261116f93909290918301828280156111655780601f1061113a57610100808354040283529160200191611165565b820191906000526020600020905b81548152906001019060200180831161114857829003601f168201915b50505050506119b6565b61081b8686611442565b6111836001610a9d565b6001600160a01b0316336001600160a01b0316146111b35760405162461bcd60e51b8152600401610519906132a4565b610dd7816119b6565b6001600160a01b03918216600090815260056020908152604080832093909416825291909152205460ff1690565b600f8054601054601154601280546040805160206002610100600186161581026000190190951604601f810182900482028301820190935282825260ff8089169994909804909716966001600160a01b03861695600160a01b900460e01b9491929083018282801561129d5780601f106112725761010080835404028352916020019161129d565b820191906000526020600020905b81548152906001019060200180831161128057829003601f168201915b50505060048401546005850154600686015460078701546008909701549596929591945092506001600160a01b0391821691168b565b60006109498383611ada565b60006112f584846001600160a01b038516611b24565b949350505050565b60006109498383611bbb565b600061094c6002836112fd565b3390565b600081815260046020526040902080546001600160a01b0319166001600160a01b038416908117909155819061134f82610a9d565b6001600160a01b03167f8c5be1e5ebec7d5bd14f71427d1e84f3dd0314c0f7b2291e5b200ac8c7c3b92560405160405180910390a45050565b600061094c82611bd3565b600c546001600160a01b0390811691161490565b60007fa9214cc96615e0085d3bb077758db69497dc2dce3b2b1e97bc93c3d18d83efd3826001600160a01b0316637730599e6040518163ffffffff1660e01b815260040160206040518083038186803b15801561140357600080fd5b505afa158015611417573d6000803e3d6000fd5b505050506040513d601f19601f8201168201806040525081019061143b91906127bd565b1492915050565b606082828080601f0160208091040260200160405190810160405280939291908181526020018383808284376000920182905250600b54600c5460405163e8e7e2d160e01b815296975091956001600160a01b03918216955063e8e7e2d194506114b493509116903090600401612d6c565b60206040518083038186803b1580156114cc57600080fd5b505afa1580156114e0573d6000803e3d6000fd5b505050506040513d601f19601f820116820180604052508101906115049190612a04565b600b54600c54600d54604051631cd43d1160e31b81529394506000936001600160a01b039384169363e6a1e888936115489390821692309290911690600401612d86565b60806040518083038186803b15801561156057600080fd5b505afa158015611574573d6000803e3d6000fd5b505050506040513d601f19601f820116820180604052508101906115989190612b78565b5090925050508181016000600b82900b12156115b2576000035b600b81900b6116b057600a54600b54600c54600d546040805160008152602081019091526001600160a01b0394851694634329d29394811693635a5999e360e11b9361160a9391831692309291169060448101612da9565b60408051601f198184030181529181526020820180516001600160e01b03166001600160e01b03199485161790525160e085901b909216825261165292918990600401612d23565b600060405180830381600087803b15801561166c57600080fd5b505af1158015611680573d6000803e3d6000fd5b505050506040513d6000823e601f3d908101601f191682016040526116a89190810190612840565b5093506117f8565b600b82900b1561170857600a54600b54600c54600d546040805160008152602081019091526001600160a01b0394851694634329d293948116936328104d3160e11b9361160a93918316921690889060448101612ddd565b600a54600b54600c54600d546040805160008152602081019091526001600160a01b0394851694634329d2939481169363317e182f60e11b9361175693918316921690889060448101612ddd565b60408051601f198184030181529181526020820180516001600160e01b03166001600160e01b03199485161790525160e085901b909216825261179e92918990600401612d23565b600060405180830381600087803b1580156117b857600080fd5b505af11580156117cc573d6000803e3d6000fd5b505050506040513d6000823e601f3d908101601f191682016040526117f49190810190612840565b5093505b50505092915050565b600061180c82611309565b6118285760405162461bcd60e51b8152600401610519906130e1565b600061183383610a9d565b9050806001600160a01b0316846001600160a01b0316148061186e5750836001600160a01b0316611863846104f2565b6001600160a01b0316145b806112f557506112f581856111bc565b826001600160a01b031661189182610a9d565b6001600160a01b0316146118b75760405162461bcd60e51b8152600401610519906132d4565b6001600160a01b0382166118dd5760405162461bcd60e51b815260040161051990612fe9565b6118e8838383611bd7565b6118f360008261131a565b6001600160a01b03831660009081526001602052604090206119159082611be0565b506001600160a01b038216600090815260016020526040902061193890826112d3565b50611945600282846112df565b5080826001600160a01b0316846001600160a01b03167fddf252ad1be2c89b69c2b068fc378daa952ba7f163c4a11628f55a4df523b3ef60405160405180910390a4505050565b60006109498383611bec565b60008080806119a78686611c31565b909450925050505b9250929050565b80516119c9906009906020840190612466565b5050565b60006112f5848484611c8d565b6119e584848461187e565b6119f184848484611cec565b610d005760405162461bcd60e51b815260040161051990612ecb565b6000611a1882610a9d565b9050611a2681600084611bd7565b611a3160008361131a565b6000828152600860205260409020546002600019610100600184161502019091160415611a6f576000828152600860205260408120611a6f916124e4565b6001600160a01b0381166000908152600160205260409020611a919083611be0565b50611a9d600283611dcb565b5060405182906000906001600160a01b038416907fddf252ad1be2c89b69c2b068fc378daa952ba7f163c4a11628f55a4df523b3ef908390a45050565b6000611ae68383611bbb565b611b1c5750815460018181018455600084815260208082209093018490558454848252828601909352604090209190915561094c565b50600061094c565b600082815260018401602052604081205480611b89575050604080518082018252838152602080820184815286546001818101895560008981528481209551600290930290950191825591519082015586548684528188019092529290912055610ea7565b82856000016001830381548110611b9c57fe5b9060005260206000209060020201600101819055506000915050610ea7565b60009081526001919091016020526040902054151590565b5490565b6105d182611dd7565b6000610949838361215b565b81546000908210611c0f5760405162461bcd60e51b815260040161051990612e48565b826000018281548110611c1e57fe5b9060005260206000200154905092915050565b815460009081908310611c565760405162461bcd60e51b815260040161051990613216565b6000846000018481548110611c6757fe5b906000526020600020906002020190508060000154816001015492509250509250929050565b60008281526001840160205260408120548281611cbd5760405162461bcd60e51b81526004016105199190612c9c565b50846000016001820381548110611cd057fe5b9060005260206000209060020201600101549150509392505050565b6000611d00846001600160a01b0316612228565b611d0c575060016112f5565b6060611d94630a85bd0160e11b611d21611316565b888787604051602401611d379493929190612c25565b604051602081830303815290604052906001600160e01b0319166020820180516001600160e01b038381831617835250505050604051806060016040528060328152602001613635603291396001600160a01b038816919061222e565b9050600081806020019051810190611dac91906127f1565b6001600160e01b031916630a85bd0160e11b1492505050949350505050565b6000610949838361223d565b6001600160a01b038116611dfd5760405162461bcd60e51b815260040161051990613064565b600a54604051631e51d6a760e11b81526001600160a01b0390911690633ca3ad4e90611e2d908490600401612c11565b60206040518083038186803b158015611e4557600080fd5b505afa158015611e59573d6000803e3d6000fd5b505050506040513d601f19601f82011682018060405250810190611e7d91906127a1565b15611e9a5760405162461bcd60e51b8152600401610519906131d4565b600d546001600160a01b0382811691161415611eb557610dd7565b600a54600b54600c54600d546040805160008152602081019091526001600160a01b03948516946339255d5b94811693635a5999e360e11b93611f049391831692309291169060448101612da9565b60408051601f198184030181529181526020820180516001600160e01b03166001600160e01b03199485161790525160e085901b9092168252611f4a9291600401612ce5565b600060405180830381600087803b158015611f6457600080fd5b505af1158015611f78573d6000803e3d6000fd5b505050506040513d6000823e601f3d908101601f19168201604052611fa0919081019061280d565b50600a54600b54600c5460405163e8e7e2d160e01b81526001600160a01b03938416936339255d5b9381169263317e182f60e11b929116908690849063e8e7e2d190611ff29085903090600401612d6c565b60206040518083038186803b15801561200a57600080fd5b505afa15801561201e573d6000803e3d6000fd5b505050506040513d601f19601f820116820180604052508101906120429190612a04565b60405160240161205493929190612e13565b60408051601f19818403018152918152602080830180516001600160e01b03166001600160e01b03199586161790528151600081529081019182905260e086901b90931690526120a8929160248101612caf565b600060405180830381600087803b1580156120c257600080fd5b505af11580156120d6573d6000803e3d6000fd5b505050506040513d6000823e601f3d908101601f191682016040526120fe919081019061280d565b50600d80546001600160a01b0319166001600160a01b0383811691909117918290556040517f7dfb1d59db37a3fd2e15e796c189dcab714cdbb18650d68a1de58f8fa60718c992612150921690612c11565b60405180910390a150565b60008181526001830160205260408120548015612217578354600019808301919081019060009087908390811061218e57fe5b90600052602060002001549050808760000184815481106121ab57fe5b6000918252602080832090910192909255828152600189810190925260409020908401905586548790806121db57fe5b6001900381819060005260206000200160009055905586600101600087815260200190815260200160002060009055600194505050505061094c565b600091505061094c565b5092915050565b3b151590565b60606112f58484600085612311565b60008181526001830160205260408120548015612217578354600019808301919081019060009087908390811061227057fe5b906000526020600020906002020190508087600001848154811061229057fe5b6000918252602080832084546002909302019182556001938401549184019190915583548252898301905260409020908401905586548790806122cf57fe5b600082815260208082206002600019909401938402018281556001908101839055929093558881528982019092526040822091909155945061094c9350505050565b6060824710156123335760405162461bcd60e51b81526004016105199061309b565b61233c85612228565b6123585760405162461bcd60e51b81526004016105199061344d565b60006060866001600160a01b031685876040516123759190612bf5565b60006040518083038185875af1925050503d80600081146123b2576040519150601f19603f3d011682016040523d82523d6000602084013e6123b7565b606091505b50915091506123c78282866123d2565b979650505050505050565b606083156123e1575081610ea7565b8251156123f15782518084602001fd5b8160405162461bcd60e51b81526004016105199190612c9c565b604080516101608101825260008082526020820181905291810182905260608082018390526080820183905260a082015260c0810182905260e081018290526101008101829052610120810182905261014081019190915290565b828054600181600116156101000203166002900490600052602060002090601f016020900481019282601f106124a757805160ff19168380011785556124d4565b828001600101855582156124d4579182015b828111156124d45782518255916020019190600101906124b9565b506124e0929150612524565b5090565b50805460018160011615610100020316600290046000825580601f1061250a5750610dd7565b601f016020900490600052602060002090810190610dd791905b5b808211156124e05760008155600101612525565b805161094c816135fb565b805161094c8161361e565b60008083601f840112612560578182fd5b50813567ffffffffffffffff811115612577578182fd5b6020830191508360208285010111156119af57600080fd5b600082601f83011261259f578081fd5b81356125b26125ad826135ab565b613584565b91508082528360208285010111156125c957600080fd5b8060208401602084013760009082016020015292915050565b600082601f8301126125f2578081fd5b81516126006125ad826135ab565b915080825283602082850101111561261757600080fd5b6122218160208401602086016135cf565b8051600b81900b811461094c57600080fd5b805160ff8116811461094c57600080fd5b60006020828403121561265c578081fd5b8135610ea7816135fb565b60008060408385031215612679578081fd5b8235612684816135fb565b91506020830135612694816135fb565b809150509250929050565b6000806000606084860312156126b3578081fd5b83356126be816135fb565b925060208401356126ce816135fb565b929592945050506040919091013590565b600080600080608085870312156126f4578081fd5b84356126ff816135fb565b9350602085013561270f816135fb565b925060408501359150606085013567ffffffffffffffff811115612731578182fd5b61273d8782880161258f565b91505092959194509250565b6000806040838503121561275b578182fd5b8235612766816135fb565b9150602083013561269481613610565b60008060408385031215612788578182fd5b8235612793816135fb565b946020939093013593505050565b6000602082840312156127b2578081fd5b8151610ea781613610565b6000602082840312156127ce578081fd5b5051919050565b6000602082840312156127e6578081fd5b8135610ea78161361e565b600060208284031215612802578081fd5b8151610ea78161361e565b60006020828403121561281e578081fd5b815167ffffffffffffffff811115612834578182fd5b6112f5848285016125e2565b60008060408385031215612852578182fd5b825167ffffffffffffffff80821115612869578384fd5b612875868387016125e2565b9350602085015191508082111561288a578283fd5b50612897858286016125e2565b9150509250929050565b600080600080600080600060a0888a0312156128bb578485fd5b87356128c6816135fb565b965060208801356128d6816135fb565b955060408801359450606088013567ffffffffffffffff808211156128f9578485fd5b6129058b838c0161254f565b909650945060808a013591508082111561291d578384fd5b5061292a8a828b0161254f565b989b979a50959850939692959293505050565b600080600080600080600080600060c08a8c03121561295a578283fd5b8935612965816135fb565b985060208a0135612975816135fb565b975060408a0135965060608a013567ffffffffffffffff80821115612998578485fd5b6129a48d838e0161254f565b909850965060808c01359150808211156129bc578485fd5b6129c88d838e0161254f565b909650945060a08c01359150808211156129e0578384fd5b506129ed8c828d0161254f565b915080935050809150509295985092959850929598565b600060208284031215612a15578081fd5b6109498383612628565b600060208284031215612a30578081fd5b813567ffffffffffffffff811115612a46578182fd5b6112f58482850161258f565b600060208284031215612a63578081fd5b815167ffffffffffffffff80821115612a7a578283fd5b8184019150610160808387031215612a90578384fd5b612a9981613584565b9050612aa5868461263a565b8152612ab4866020850161263a565b602082015260408301516040820152612ad08660608501612539565b6060820152612ae28660808501612544565b608082015260a083015182811115612af8578485fd5b612b04878286016125e2565b60a08301525060c083015160c082015260e083015160e0820152610100915081830151828201526101209150612b3c86838501612539565b828201526101409150612b5186838501612539565b91810191909152949350505050565b600060208284031215612b71578081fd5b5035919050565b60008060008060808587031215612b8d578182fd5b84519350612b9e8660208701612628565b6040860151606090960151949790965092505050565b60008151808452612bcc8160208601602086016135cf565b601f01601f19169290920160200192915050565b6002815261060f60f31b602082015260400190565b60008251612c078184602087016135cf565b9190910192915050565b6001600160a01b0391909116815260200190565b6001600160a01b0385811682528416602082015260408101839052608060608201819052600090612c5890830184612bb4565b9695505050505050565b901515815260200190565b60006020825282602083015282846040840137818301604090810191909152601f909201601f19160101919050565b6000602082526109496020830184612bb4565b6001600160a01b0384168152606060208201819052600090612cd390830185612bb4565b8281036040840152612c588185612bb4565b6001600160a01b0383168152606060208201819052600090612d0990830184612bb4565b8281036040840152612d1a81612be0565b95945050505050565b6001600160a01b0384168152608060208201819052600090612d4790830185612bb4565b8281036040840152612d5881612be0565b90508281036060840152612c588185612bb4565b6001600160a01b0392831681529116602082015260400190565b6001600160a01b0393841681529183166020830152909116604082015260600190565b6001600160a01b038581168252848116602083015283166040820152608060608201819052600090612c5890830184612bb4565b6001600160a01b03858116825284166020820152600b83900b6040820152608060608201819052600090612c5890830184612bb4565b6001600160a01b03848116825283166020820152600b82900b6040820152608060608201819052600090612d1a908301612be0565b60208082526022908201527f456e756d657261626c655365743a20696e646578206f7574206f6620626f756e604082015261647360f01b606082015260800190565b60208082526021908201527f5265646972656374416c6c3a206f6e6c7920434641763120737570706f7274656040820152601960fa1b606082015260800190565b60208082526032908201527f4552433732313a207472616e7366657220746f206e6f6e20455243373231526560408201527131b2b4bb32b91034b6b83632b6b2b73a32b960711b606082015260800190565b6020808252601f908201527f5265646972656374416c6c3a206e6f7420616363657074656420746f6b656e00604082015260600190565b60208082526033908201527f556e737570706f727465642063616c6c6261636b202d20204265666f7265204160408201527219dc99595b595b9d0815195c9b5a5b985d1959606a1b606082015260800190565b60208082526022908201527f5265646972656374416c6c3a20737570706f7274206f6e6c79206f6e6520686f6040820152611cdd60f21b606082015260800190565b60208082526024908201527f4552433732313a207472616e7366657220746f20746865207a65726f206164646040820152637265737360e01b606082015260800190565b60208082526019908201527f4552433732313a20617070726f766520746f2063616c6c657200000000000000604082015260600190565b6020808252601c908201527f4e6577207265636569766572206973207a65726f206164647265737300000000604082015260600190565b60208082526026908201527f416464726573733a20696e73756666696369656e742062616c616e636520666f6040820152651c8818d85b1b60d21b606082015260800190565b6020808252602c908201527f4552433732313a206f70657261746f7220717565727920666f72206e6f6e657860408201526b34b9ba32b73a103a37b5b2b760a11b606082015260800190565b60208082526038908201527f4552433732313a20617070726f76652063616c6c6572206973206e6f74206f7760408201527f6e6572206e6f7220617070726f76656420666f7220616c6c0000000000000000606082015260800190565b6020808252602a908201527f4552433732313a2062616c616e636520717565727920666f7220746865207a65604082015269726f206164647265737360b01b606082015260800190565b60208082526022908201527f4e65772072656365697665722063616e206e6f74206265206120737570657241604082015261070760f41b606082015260800190565b60208082526022908201527f456e756d657261626c654d61703a20696e646578206f7574206f6620626f756e604082015261647360f01b606082015260800190565b6020808252602c908201527f4552433732313a20617070726f76656420717565727920666f72206e6f6e657860408201526b34b9ba32b73a103a37b5b2b760a11b606082015260800190565b6020808252601690820152752737ba103a34329037bbb732b91037b3102a37b5b2b760511b604082015260600190565b60208082526029908201527f4552433732313a207472616e73666572206f6620746f6b656e2074686174206960408201526839903737ba1037bbb760b91b606082015260800190565b6020808252602f908201527f4552433732314d657461646174613a2055524920717565727920666f72206e6f60408201526e3732bc34b9ba32b73a103a37b5b2b760891b606082015260800190565b60208082526021908201527f4552433732313a20617070726f76616c20746f2063757272656e74206f776e656040820152603960f91b606082015260800190565b6020808252602f908201527f556e737570706f727465642063616c6c6261636b202d204265666f726520416760408201526e1c99595b595b9d081d5c19185d1959608a1b606082015260800190565b60208082526031908201527f4552433732313a207472616e736665722063616c6c6572206973206e6f74206f6040820152701ddb995c881b9bdc88185c1c1c9bdd9959607a1b606082015260800190565b6020808252601d908201527f416464726573733a2063616c6c20746f206e6f6e2d636f6e7472616374000000604082015260600190565b6020808252602f908201527f556e737570706f727465642063616c6c6261636b202d204265666f726520416760408201526e1c99595b595b9d0810dc99585d1959608a1b606082015260800190565b90815260200190565b9283526001600160a01b03919091166020830152600b0b604082015260600190565b60ff8c811682528b166020820152604081018a90526001600160a01b0389811660608301526001600160e01b03198916608083015261016060a0830181905260009161354c8483018b612bb4565b60c085019990995260e08401979097525050610100810193909352908316610120830152909116610140909101529695505050505050565b60405181810167ffffffffffffffff811182821017156135a357600080fd5b604052919050565b600067ffffffffffffffff8211156135c1578081fd5b50601f01601f191660200190565b60005b838110156135ea5781810151838201526020016135d2565b83811115610d005750506000910152565b6001600160a01b0381168114610dd757600080fd5b8015158114610dd757600080fd5b6001600160e01b031981168114610dd757600080fdfe4552433732313a207472616e7366657220746f206e6f6e20455243373231526563656976657220696d706c656d656e7465724552433732313a206f776e657220717565727920666f72206e6f6e6578697374656e7420746f6b656e697066733a2f2f516d624e45346d35624a4d5165444851664d505977594d69535466386475765a3166526f48796368443452566f5a2f312e6a736f6ea26469706673582212202a0e12f5400d5e95c19755d083ecffe9f0dc2465b9507598e8b4547958fb785764736f6c63430007000033697066733a2f2f516d624e45346d35624a4d5165444851664d505977594d69535466386475765a3166526f48796368443452566f5a2f312e6a736f6e",
  "devdoc": {
    "kind": "dev",
    "methods": {
      "approve(address,uint256)": {
        "details": "See {IERC721-approve}."
      },
      "balanceOf(address)": {
        "details": "See {IERC721-balanceOf}."
      },
      "baseURI()": {
        "details": "Returns the base URI set via {_setBaseURI}. This will be automatically added as a prefix in {tokenURI} to each token's URI, or to the token ID if no specific URI is set for that token ID."
      },
      "getApproved(uint256)": {
        "details": "See {IERC721-getApproved}."
      },
      "isApprovedForAll(address,address)": {
        "details": "See {IERC721-isApprovedForAll}."
      },
      "name()": {
        "details": "See {IERC721Metadata-name}."
      },
      "ownerOf(uint256)": {
        "details": "See {IERC721-ownerOf}."
      },
      "safeTransferFrom(address,address,uint256)": {
        "details": "See {IERC721-safeTransferFrom}."
      },
      "safeTransferFrom(address,address,uint256,bytes)": {
        "details": "See {IERC721-safeTransferFrom}."
      },
      "setApprovalForAll(address,bool)": {
        "details": "See {IERC721-setApprovalForAll}."
      },
      "supportsInterface(bytes4)": {
        "details": "See {IERC165-supportsInterface}. Time complexity O(1), guaranteed to always use less than 30 000 gas."
      },
      "symbol()": {
        "details": "See {IERC721Metadata-symbol}."
      },
      "tokenByIndex(uint256)": {
        "details": "See {IERC721Enumerable-tokenByIndex}."
      },
      "tokenOfOwnerByIndex(address,uint256)": {
        "details": "See {IERC721Enumerable-tokenOfOwnerByIndex}."
      },
      "tokenURI(uint256)": {
        "details": "See {IERC721Metadata-tokenURI}."
      },
      "totalSupply()": {
        "details": "See {IERC721Enumerable-totalSupply}."
      },
      "transferFrom(address,address,uint256)": {
        "details": "See {IERC721-transferFrom}."
      }
    },
    "version": 1
  },
  "userdoc": {
    "kind": "user",
    "methods": {},
    "version": 1
  },
  "storageLayout": {
    "storage": [
      {
        "astId": 13,
        "contract": "contracts/NFT.sol:BrightIDStream",
        "label": "_supportedInterfaces",
        "offset": 0,
        "slot": "0",
        "type": "t_mapping(t_bytes4,t_bool)"
      },
      {
        "astId": 547,
        "contract": "contracts/NFT.sol:BrightIDStream",
        "label": "_holderTokens",
        "offset": 0,
        "slot": "1",
        "type": "t_mapping(t_address,t_struct(UintSet)3072_storage)"
      },
      {
        "astId": 549,
        "contract": "contracts/NFT.sol:BrightIDStream",
        "label": "_tokenOwners",
        "offset": 0,
        "slot": "2",
        "type": "t_struct(UintToAddressMap)2449_storage"
      },
      {
        "astId": 553,
        "contract": "contracts/NFT.sol:BrightIDStream",
        "label": "_tokenApprovals",
        "offset": 0,
        "slot": "4",
        "type": "t_mapping(t_uint256,t_address)"
      },
      {
        "astId": 559,
        "contract": "contracts/NFT.sol:BrightIDStream",
        "label": "_operatorApprovals",
        "offset": 0,
        "slot": "5",
        "type": "t_mapping(t_address,t_mapping(t_address,t_bool))"
      },
      {
        "astId": 561,
        "contract": "contracts/NFT.sol:BrightIDStream",
        "label": "_name",
        "offset": 0,
        "slot": "6",
        "type": "t_string_storage"
      },
      {
        "astId": 563,
        "contract": "contracts/NFT.sol:BrightIDStream",
        "label": "_symbol",
        "offset": 0,
        "slot": "7",
        "type": "t_string_storage"
      },
      {
        "astId": 567,
        "contract": "contracts/NFT.sol:BrightIDStream",
        "label": "_tokenURIs",
        "offset": 0,
        "slot": "8",
        "type": "t_mapping(t_uint256,t_string_storage)"
      },
      {
        "astId": 569,
        "contract": "contracts/NFT.sol:BrightIDStream",
        "label": "_baseURI",
        "offset": 0,
        "slot": "9",
        "type": "t_string_storage"
      },
      {
        "astId": 5280,
        "contract": "contracts/NFT.sol:BrightIDStream",
        "label": "_host",
        "offset": 0,
        "slot": "10",
        "type": "t_contract(ISuperfluid)4862"
      },
      {
        "astId": 5282,
        "contract": "contracts/NFT.sol:BrightIDStream",
        "label": "_cfa",
        "offset": 0,
        "slot": "11",
        "type": "t_contract(IConstantFlowAgreementV1)3557"
      },
      {
        "astId": 5284,
        "contract": "contracts/NFT.sol:BrightIDStream",
        "label": "_acceptedToken",
        "offset": 0,
        "slot": "12",
        "type": "t_contract(ISuperToken)4366"
      },
      {
        "astId": 5286,
        "contract": "contracts/NFT.sol:BrightIDStream",
        "label": "_receiver",
        "offset": 0,
        "slot": "13",
        "type": "t_address"
      },
      {
        "astId": 5289,
        "contract": "contracts/NFT.sol:BrightIDStream",
        "label": "baseExtension",
        "offset": 0,
        "slot": "14",
        "type": "t_string_storage"
      },
      {
        "astId": 5679,
        "contract": "contracts/NFT.sol:BrightIDStream",
        "label": "uData",
        "offset": 0,
        "slot": "15",
        "type": "t_struct(Context)4800_storage"
      },
      {
        "astId": 5681,
        "contract": "contracts/NFT.sol:BrightIDStream",
        "label": "userData",
        "offset": 0,
        "slot": "24",
        "type": "t_string_storage"
      }
    ],
    "types": {
      "t_address": {
        "encoding": "inplace",
        "label": "address",
        "numberOfBytes": "20"
      },
      "t_array(t_bytes32)dyn_storage": {
        "base": "t_bytes32",
        "encoding": "dynamic_array",
        "label": "bytes32[]",
        "numberOfBytes": "32"
      },
      "t_array(t_struct(MapEntry)2123_storage)dyn_storage": {
        "base": "t_struct(MapEntry)2123_storage",
        "encoding": "dynamic_array",
        "label": "struct EnumerableMap.MapEntry[]",
        "numberOfBytes": "32"
      },
      "t_bool": {
        "encoding": "inplace",
        "label": "bool",
        "numberOfBytes": "1"
      },
      "t_bytes32": {
        "encoding": "inplace",
        "label": "bytes32",
        "numberOfBytes": "32"
      },
      "t_bytes4": {
        "encoding": "inplace",
        "label": "bytes4",
        "numberOfBytes": "4"
      },
      "t_bytes_storage": {
        "encoding": "bytes",
        "label": "bytes",
        "numberOfBytes": "32"
      },
      "t_contract(IConstantFlowAgreementV1)3557": {
        "encoding": "inplace",
        "label": "contract IConstantFlowAgreementV1",
        "numberOfBytes": "20"
      },
      "t_contract(ISuperToken)4366": {
        "encoding": "inplace",
        "label": "contract ISuperToken",
        "numberOfBytes": "20"
      },
      "t_contract(ISuperfluid)4862": {
        "encoding": "inplace",
        "label": "contract ISuperfluid",
        "numberOfBytes": "20"
      },
      "t_contract(ISuperfluidToken)5223": {
        "encoding": "inplace",
        "label": "contract ISuperfluidToken",
        "numberOfBytes": "20"
      },
      "t_int256": {
        "encoding": "inplace",
        "label": "int256",
        "numberOfBytes": "32"
      },
      "t_mapping(t_address,t_bool)": {
        "encoding": "mapping",
        "key": "t_address",
        "label": "mapping(address => bool)",
        "numberOfBytes": "32",
        "value": "t_bool"
      },
      "t_mapping(t_address,t_mapping(t_address,t_bool))": {
        "encoding": "mapping",
        "key": "t_address",
        "label": "mapping(address => mapping(address => bool))",
        "numberOfBytes": "32",
        "value": "t_mapping(t_address,t_bool)"
      },
      "t_mapping(t_address,t_struct(UintSet)3072_storage)": {
        "encoding": "mapping",
        "key": "t_address",
        "label": "mapping(address => struct EnumerableSet.UintSet)",
        "numberOfBytes": "32",
        "value": "t_struct(UintSet)3072_storage"
      },
      "t_mapping(t_bytes32,t_uint256)": {
        "encoding": "mapping",
        "key": "t_bytes32",
        "label": "mapping(bytes32 => uint256)",
        "numberOfBytes": "32",
        "value": "t_uint256"
      },
      "t_mapping(t_bytes4,t_bool)": {
        "encoding": "mapping",
        "key": "t_bytes4",
        "label": "mapping(bytes4 => bool)",
        "numberOfBytes": "32",
        "value": "t_bool"
      },
      "t_mapping(t_uint256,t_address)": {
        "encoding": "mapping",
        "key": "t_uint256",
        "label": "mapping(uint256 => address)",
        "numberOfBytes": "32",
        "value": "t_address"
      },
      "t_mapping(t_uint256,t_string_storage)": {
        "encoding": "mapping",
        "key": "t_uint256",
        "label": "mapping(uint256 => string)",
        "numberOfBytes": "32",
        "value": "t_string_storage"
      },
      "t_string_storage": {
        "encoding": "bytes",
        "label": "string",
        "numberOfBytes": "32"
      },
      "t_struct(Context)4800_storage": {
        "encoding": "inplace",
        "label": "struct ISuperfluid.Context",
        "members": [
          {
            "astId": 4779,
            "contract": "contracts/NFT.sol:BrightIDStream",
            "label": "appLevel",
            "offset": 0,
            "slot": "0",
            "type": "t_uint8"
          },
          {
            "astId": 4781,
            "contract": "contracts/NFT.sol:BrightIDStream",
            "label": "callType",
            "offset": 1,
            "slot": "0",
            "type": "t_uint8"
          },
          {
            "astId": 4783,
            "contract": "contracts/NFT.sol:BrightIDStream",
            "label": "timestamp",
            "offset": 0,
            "slot": "1",
            "type": "t_uint256"
          },
          {
            "astId": 4785,
            "contract": "contracts/NFT.sol:BrightIDStream",
            "label": "msgSender",
            "offset": 0,
            "slot": "2",
            "type": "t_address"
          },
          {
            "astId": 4787,
            "contract": "contracts/NFT.sol:BrightIDStream",
            "label": "agreementSelector",
            "offset": 20,
            "slot": "2",
            "type": "t_bytes4"
          },
          {
            "astId": 4789,
            "contract": "contracts/NFT.sol:BrightIDStream",
            "label": "userData",
            "offset": 0,
            "slot": "3",
            "type": "t_bytes_storage"
          },
          {
            "astId": 4791,
            "contract": "contracts/NFT.sol:BrightIDStream",
            "label": "appAllowanceGranted",
            "offset": 0,
            "slot": "4",
            "type": "t_uint256"
          },
          {
            "astId": 4793,
            "contract": "contracts/NFT.sol:BrightIDStream",
            "label": "appAllowanceWanted",
            "offset": 0,
            "slot": "5",
            "type": "t_uint256"
          },
          {
            "astId": 4795,
            "contract": "contracts/NFT.sol:BrightIDStream",
            "label": "appAllowanceUsed",
            "offset": 0,
            "slot": "6",
            "type": "t_int256"
          },
          {
            "astId": 4797,
            "contract": "contracts/NFT.sol:BrightIDStream",
            "label": "appAddress",
            "offset": 0,
            "slot": "7",
            "type": "t_address"
          },
          {
            "astId": 4799,
            "contract": "contracts/NFT.sol:BrightIDStream",
            "label": "appAllowanceToken",
            "offset": 0,
            "slot": "8",
            "type": "t_contract(ISuperfluidToken)5223"
          }
        ],
        "numberOfBytes": "288"
      },
      "t_struct(Map)2131_storage": {
        "encoding": "inplace",
        "label": "struct EnumerableMap.Map",
        "members": [
          {
            "astId": 2126,
            "contract": "contracts/NFT.sol:BrightIDStream",
            "label": "_entries",
            "offset": 0,
            "slot": "0",
            "type": "t_array(t_struct(MapEntry)2123_storage)dyn_storage"
          },
          {
            "astId": 2130,
            "contract": "contracts/NFT.sol:BrightIDStream",
            "label": "_indexes",
            "offset": 0,
            "slot": "1",
            "type": "t_mapping(t_bytes32,t_uint256)"
          }
        ],
        "numberOfBytes": "64"
      },
      "t_struct(MapEntry)2123_storage": {
        "encoding": "inplace",
        "label": "struct EnumerableMap.MapEntry",
        "members": [
          {
            "astId": 2120,
            "contract": "contracts/NFT.sol:BrightIDStream",
            "label": "_key",
            "offset": 0,
            "slot": "0",
            "type": "t_bytes32"
          },
          {
            "astId": 2122,
            "contract": "contracts/NFT.sol:BrightIDStream",
            "label": "_value",
            "offset": 0,
            "slot": "1",
            "type": "t_bytes32"
          }
        ],
        "numberOfBytes": "64"
      },
      "t_struct(Set)2686_storage": {
        "encoding": "inplace",
        "label": "struct EnumerableSet.Set",
        "members": [
          {
            "astId": 2681,
            "contract": "contracts/NFT.sol:BrightIDStream",
            "label": "_values",
            "offset": 0,
            "slot": "0",
            "type": "t_array(t_bytes32)dyn_storage"
          },
          {
            "astId": 2685,
            "contract": "contracts/NFT.sol:BrightIDStream",
            "label": "_indexes",
            "offset": 0,
            "slot": "1",
            "type": "t_mapping(t_bytes32,t_uint256)"
          }
        ],
        "numberOfBytes": "64"
      },
      "t_struct(UintSet)3072_storage": {
        "encoding": "inplace",
        "label": "struct EnumerableSet.UintSet",
        "members": [
          {
            "astId": 3071,
            "contract": "contracts/NFT.sol:BrightIDStream",
            "label": "_inner",
            "offset": 0,
            "slot": "0",
            "type": "t_struct(Set)2686_storage"
          }
        ],
        "numberOfBytes": "64"
      },
      "t_struct(UintToAddressMap)2449_storage": {
        "encoding": "inplace",
        "label": "struct EnumerableMap.UintToAddressMap",
        "members": [
          {
            "astId": 2448,
            "contract": "contracts/NFT.sol:BrightIDStream",
            "label": "_inner",
            "offset": 0,
            "slot": "0",
            "type": "t_struct(Map)2131_storage"
          }
        ],
        "numberOfBytes": "64"
      },
      "t_uint256": {
        "encoding": "inplace",
        "label": "uint256",
        "numberOfBytes": "32"
      },
      "t_uint8": {
        "encoding": "inplace",
        "label": "uint8",
        "numberOfBytes": "1"
      }
    }
  }
}