{
  "address": "0xCB994eD339A9b4fa33aF92f047206087aa7422f5",
  "abi": [
    {
      "inputs": [
        {
          "internalType": "address",
          "name": "owner",
          "type": "address"
        },
        {
          "internalType": "string",
          "name": "_name",
          "type": "string"
        },
        {
          "internalType": "string",
          "name": "_symbol",
          "type": "string"
        },
        {
          "internalType": "contract ISuperfluid",
          "name": "host",
          "type": "address"
        },
        {
          "internalType": "contract IConstantFlowAgreementV1",
          "name": "cfa",
          "type": "address"
        },
        {
          "internalType": "contract ISuperToken",
          "name": "acceptedToken",
          "type": "address"
        },
        {
          "internalType": "address",
          "name": "receiver",
          "type": "address"
        }
      ],
      "stateMutability": "nonpayable",
      "type": "constructor"
    },
    {
      "anonymous": false,
      "inputs": [
        {
          "indexed": true,
          "internalType": "address",
          "name": "owner",
          "type": "address"
        },
        {
          "indexed": true,
          "internalType": "address",
          "name": "approved",
          "type": "address"
        },
        {
          "indexed": true,
          "internalType": "uint256",
          "name": "tokenId",
          "type": "uint256"
        }
      ],
      "name": "Approval",
      "type": "event"
    },
    {
      "anonymous": false,
      "inputs": [
        {
          "indexed": true,
          "internalType": "address",
          "name": "owner",
          "type": "address"
        },
        {
          "indexed": true,
          "internalType": "address",
          "name": "operator",
          "type": "address"
        },
        {
          "indexed": false,
          "internalType": "bool",
          "name": "approved",
          "type": "bool"
        }
      ],
      "name": "ApprovalForAll",
      "type": "event"
    },
    {
      "anonymous": false,
      "inputs": [
        {
          "indexed": false,
          "internalType": "address",
          "name": "receiver",
          "type": "address"
        }
      ],
      "name": "ReceiverChanged",
      "type": "event"
    },
    {
      "anonymous": false,
      "inputs": [
        {
          "indexed": true,
          "internalType": "address",
          "name": "from",
          "type": "address"
        },
        {
          "indexed": true,
          "internalType": "address",
          "name": "to",
          "type": "address"
        },
        {
          "indexed": true,
          "internalType": "uint256",
          "name": "tokenId",
          "type": "uint256"
        }
      ],
      "name": "Transfer",
      "type": "event"
    },
    {
      "inputs": [
        {
          "internalType": "contract ISuperToken",
          "name": "_superToken",
          "type": "address"
        },
        {
          "internalType": "address",
          "name": "_agreementClass",
          "type": "address"
        },
        {
          "internalType": "bytes32",
          "name": "",
          "type": "bytes32"
        },
        {
          "internalType": "bytes",
          "name": "",
          "type": "bytes"
        },
        {
          "internalType": "bytes",
          "name": "",
          "type": "bytes"
        },
        {
          "internalType": "bytes",
          "name": "_ctx",
          "type": "bytes"
        }
      ],
      "name": "afterAgreementCreated",
      "outputs": [
        {
          "internalType": "bytes",
          "name": "newCtx",
          "type": "bytes"
        }
      ],
      "stateMutability": "nonpayable",
      "type": "function"
    },
    {
      "inputs": [
        {
          "internalType": "contract ISuperToken",
          "name": "_superToken",
          "type": "address"
        },
        {
          "internalType": "address",
          "name": "_agreementClass",
          "type": "address"
        },
        {
          "internalType": "bytes32",
          "name": "",
          "type": "bytes32"
        },
        {
          "internalType": "bytes",
          "name": "",
          "type": "bytes"
        },
        {
          "internalType": "bytes",
          "name": "",
          "type": "bytes"
        },
        {
          "internalType": "bytes",
          "name": "_ctx",
          "type": "bytes"
        }
      ],
      "name": "afterAgreementTerminated",
      "outputs": [
        {
          "internalType": "bytes",
          "name": "newCtx",
          "type": "bytes"
        }
      ],
      "stateMutability": "nonpayable",
      "type": "function"
    },
    {
      "inputs": [
        {
          "internalType": "contract ISuperToken",
          "name": "_superToken",
          "type": "address"
        },
        {
          "internalType": "address",
          "name": "_agreementClass",
          "type": "address"
        },
        {
          "internalType": "bytes32",
          "name": "",
          "type": "bytes32"
        },
        {
          "internalType": "bytes",
          "name": "agreementData",
          "type": "bytes"
        },
        {
          "internalType": "bytes",
          "name": "",
          "type": "bytes"
        },
        {
          "internalType": "bytes",
          "name": "_ctx",
          "type": "bytes"
        }
      ],
      "name": "afterAgreementUpdated",
      "outputs": [
        {
          "internalType": "bytes",
          "name": "newCtx",
          "type": "bytes"
        }
      ],
      "stateMutability": "nonpayable",
      "type": "function"
    },
    {
      "inputs": [
        {
          "internalType": "address",
          "name": "to",
          "type": "address"
        },
        {
          "internalType": "uint256",
          "name": "tokenId",
          "type": "uint256"
        }
      ],
      "name": "approve",
      "outputs": [],
      "stateMutability": "nonpayable",
      "type": "function"
    },
    {
      "inputs": [
        {
          "internalType": "address",
          "name": "owner",
          "type": "address"
        }
      ],
      "name": "balanceOf",
      "outputs": [
        {
          "internalType": "uint256",
          "name": "",
          "type": "uint256"
        }
      ],
      "stateMutability": "view",
      "type": "function"
    },
    {
      "inputs": [],
      "name": "baseExtension",
      "outputs": [
        {
          "internalType": "string",
          "name": "",
          "type": "string"
        }
      ],
      "stateMutability": "view",
      "type": "function"
    },
    {
      "inputs": [],
      "name": "baseURI",
      "outputs": [
        {
          "internalType": "string",
          "name": "",
          "type": "string"
        }
      ],
      "stateMutability": "view",
      "type": "function"
    },
    {
      "inputs": [
        {
          "internalType": "contract ISuperToken",
          "name": "",
          "type": "address"
        },
        {
          "internalType": "address",
          "name": "",
          "type": "address"
        },
        {
          "internalType": "bytes32",
          "name": "",
          "type": "bytes32"
        },
        {
          "internalType": "bytes",
          "name": "",
          "type": "bytes"
        },
        {
          "internalType": "bytes",
          "name": "",
          "type": "bytes"
        }
      ],
      "name": "beforeAgreementCreated",
      "outputs": [
        {
          "internalType": "bytes",
          "name": "",
          "type": "bytes"
        }
      ],
      "stateMutability": "view",
      "type": "function"
    },
    {
      "inputs": [
        {
          "internalType": "contract ISuperToken",
          "name": "",
          "type": "address"
        },
        {
          "internalType": "address",
          "name": "",
          "type": "address"
        },
        {
          "internalType": "bytes32",
          "name": "",
          "type": "bytes32"
        },
        {
          "internalType": "bytes",
          "name": "",
          "type": "bytes"
        },
        {
          "internalType": "bytes",
          "name": "",
          "type": "bytes"
        }
      ],
      "name": "beforeAgreementTerminated",
      "outputs": [
        {
          "internalType": "bytes",
          "name": "",
          "type": "bytes"
        }
      ],
      "stateMutability": "view",
      "type": "function"
    },
    {
      "inputs": [
        {
          "internalType": "contract ISuperToken",
          "name": "",
          "type": "address"
        },
        {
          "internalType": "address",
          "name": "",
          "type": "address"
        },
        {
          "internalType": "bytes32",
          "name": "",
          "type": "bytes32"
        },
        {
          "internalType": "bytes",
          "name": "",
          "type": "bytes"
        },
        {
          "internalType": "bytes",
          "name": "",
          "type": "bytes"
        }
      ],
      "name": "beforeAgreementUpdated",
      "outputs": [
        {
          "internalType": "bytes",
          "name": "",
          "type": "bytes"
        }
      ],
      "stateMutability": "view",
      "type": "function"
    },
    {
      "inputs": [
        {
          "internalType": "string",
          "name": "_tokenURI",
          "type": "string"
        }
      ],
      "name": "changeURI",
      "outputs": [],
      "stateMutability": "nonpayable",
      "type": "function"
    },
    {
      "inputs": [],
      "name": "currentReceiver",
      "outputs": [
        {
          "internalType": "uint256",
          "name": "startTime",
          "type": "uint256"
        },
        {
          "internalType": "address",
          "name": "receiver",
          "type": "address"
        },
        {
          "internalType": "int96",
          "name": "flowRate",
          "type": "int96"
        }
      ],
      "stateMutability": "view",
      "type": "function"
    },
    {
      "inputs": [
        {
          "internalType": "uint256",
          "name": "_tokenId",
          "type": "uint256"
        }
      ],
      "name": "destroyNFT",
      "outputs": [],
      "stateMutability": "nonpayable",
      "type": "function"
    },
    {
      "inputs": [
        {
          "internalType": "uint256",
          "name": "tokenId",
          "type": "uint256"
        }
      ],
      "name": "getApproved",
      "outputs": [
        {
          "internalType": "address",
          "name": "",
          "type": "address"
        }
      ],
      "stateMutability": "view",
      "type": "function"
    },
    {
      "inputs": [
        {
          "internalType": "address",
          "name": "owner",
          "type": "address"
        },
        {
          "internalType": "address",
          "name": "operator",
          "type": "address"
        }
      ],
      "name": "isApprovedForAll",
      "outputs": [
        {
          "internalType": "bool",
          "name": "",
          "type": "bool"
        }
      ],
      "stateMutability": "view",
      "type": "function"
    },
    {
      "inputs": [],
      "name": "name",
      "outputs": [
        {
          "internalType": "string",
          "name": "",
          "type": "string"
        }
      ],
      "stateMutability": "view",
      "type": "function"
    },
    {
      "inputs": [
        {
          "internalType": "uint256",
          "name": "tokenId",
          "type": "uint256"
        }
      ],
      "name": "ownerOf",
      "outputs": [
        {
          "internalType": "address",
          "name": "",
          "type": "address"
        }
      ],
      "stateMutability": "view",
      "type": "function"
    },
    {
      "inputs": [
        {
          "internalType": "address",
          "name": "from",
          "type": "address"
        },
        {
          "internalType": "address",
          "name": "to",
          "type": "address"
        },
        {
          "internalType": "uint256",
          "name": "tokenId",
          "type": "uint256"
        }
      ],
      "name": "safeTransferFrom",
      "outputs": [],
      "stateMutability": "nonpayable",
      "type": "function"
    },
    {
      "inputs": [
        {
          "internalType": "address",
          "name": "from",
          "type": "address"
        },
        {
          "internalType": "address",
          "name": "to",
          "type": "address"
        },
        {
          "internalType": "uint256",
          "name": "tokenId",
          "type": "uint256"
        },
        {
          "internalType": "bytes",
          "name": "_data",
          "type": "bytes"
        }
      ],
      "name": "safeTransferFrom",
      "outputs": [],
      "stateMutability": "nonpayable",
      "type": "function"
    },
    {
      "inputs": [
        {
          "internalType": "address",
          "name": "operator",
          "type": "address"
        },
        {
          "internalType": "bool",
          "name": "approved",
          "type": "bool"
        }
      ],
      "name": "setApprovalForAll",
      "outputs": [],
      "stateMutability": "nonpayable",
      "type": "function"
    },
    {
      "inputs": [
        {
          "internalType": "bytes4",
          "name": "interfaceId",
          "type": "bytes4"
        }
      ],
      "name": "supportsInterface",
      "outputs": [
        {
          "internalType": "bool",
          "name": "",
          "type": "bool"
        }
      ],
      "stateMutability": "view",
      "type": "function"
    },
    {
      "inputs": [],
      "name": "symbol",
      "outputs": [
        {
          "internalType": "string",
          "name": "",
          "type": "string"
        }
      ],
      "stateMutability": "view",
      "type": "function"
    },
    {
      "inputs": [
        {
          "internalType": "uint256",
          "name": "index",
          "type": "uint256"
        }
      ],
      "name": "tokenByIndex",
      "outputs": [
        {
          "internalType": "uint256",
          "name": "",
          "type": "uint256"
        }
      ],
      "stateMutability": "view",
      "type": "function"
    },
    {
      "inputs": [
        {
          "internalType": "address",
          "name": "owner",
          "type": "address"
        },
        {
          "internalType": "uint256",
          "name": "index",
          "type": "uint256"
        }
      ],
      "name": "tokenOfOwnerByIndex",
      "outputs": [
        {
          "internalType": "uint256",
          "name": "",
          "type": "uint256"
        }
      ],
      "stateMutability": "view",
      "type": "function"
    },
    {
      "inputs": [
        {
          "internalType": "uint256",
          "name": "tokenId",
          "type": "uint256"
        }
      ],
      "name": "tokenURI",
      "outputs": [
        {
          "internalType": "string",
          "name": "",
          "type": "string"
        }
      ],
      "stateMutability": "view",
      "type": "function"
    },
    {
      "inputs": [],
      "name": "totalSupply",
      "outputs": [
        {
          "internalType": "uint256",
          "name": "",
          "type": "uint256"
        }
      ],
      "stateMutability": "view",
      "type": "function"
    },
    {
      "inputs": [
        {
          "internalType": "address",
          "name": "from",
          "type": "address"
        },
        {
          "internalType": "address",
          "name": "to",
          "type": "address"
        },
        {
          "internalType": "uint256",
          "name": "tokenId",
          "type": "uint256"
        }
      ],
      "name": "transferFrom",
      "outputs": [],
      "stateMutability": "nonpayable",
      "type": "function"
    }
  ],
  "transactionHash": "0xb4be674a5bd3aa0fc724b44fac1e89219afb1de4b77d828872bcff1ef1a090ee",
  "args": [
    "0x9263bFf6ACCb60E83254E95220e7637465298171",
    "BrightIDStream",
    "BID",
    "0xeD5B5b32110c3Ded02a07c8b8e97513FAfb883B6",
    "0xF4C5310E51F6079F601a5fb7120bC72a70b96e2A",
    "0x745861AeD1EEe363b4AaA5F1994Be40b1e05Ff90",
    "0x9263bFf6ACCb60E83254E95220e7637465298171"
  ],
  "numDeployments": 1,
  "solcInputHash": "127be39c18285eb28847704c8d6f3e5d",
  "bytecode": "0x60c06040526005608081905264173539b7b760d91b60a09081526200002891600e919062000933565b503480156200003657600080fd5b5060405162003e3c38038062003e3c833981016040819052620000599162000a63565b85856200006d6301ffc9a760e01b62000205565b81516200008290600690602085019062000933565b5080516200009890600790602084019062000933565b50620000ab6380ac58cd60e01b62000205565b620000bd635b5e139f60e01b62000205565b620000cf63780e9d6360e01b62000205565b50506001600160a01b038416620000e257fe5b6001600160a01b038316620000f357fe5b6001600160a01b0382166200010457fe5b6001600160a01b0381166200011557fe5b600a80546001600160a01b03199081166001600160a01b038781169190911792839055600b80548316878316179055600c80548316868316179055600d8054909216848216179091556040516315a722b960e31b8152641500000001929091169063ad3915c8906200018c90849060040162000e48565b600060405180830381600087803b158015620001a757600080fd5b505af1158015620001bc573d6000803e3d6000fd5b50505050620001d38860016200026060201b60201c565b620001f76040518060600160405280603c815260200162003e00603c91396200034e565b505050505050505062000e9a565b6001600160e01b031980821614156200023b5760405162461bcd60e51b8152600401620002329062000d2c565b60405180910390fd5b6001600160e01b0319166000908152602081905260409020805460ff19166001179055565b6001600160a01b038216620002895760405162461bcd60e51b8152600401620002329062000e13565b620002948162000367565b15620002b45760405162461bcd60e51b8152600401620002329062000d63565b620002c2600083836200038a565b6001600160a01b0382166000908152600160209081526040909120620002f391839062000cfa6200039a821b17901c565b506200031181836002620003af60201b62000d06179092919060201c565b5060405181906001600160a01b038416906000907fddf252ad1be2c89b69c2b068fc378daa952ba7f163c4a11628f55a4df523b3ef908290a45050565b80516200036390600990602084019062000933565b5050565b600062000384826002620003cf60201b62000d241790919060201c565b92915050565b6200039582620003dd565b505050565b6000620003a8838362000831565b9392505050565b6000620003c784846001600160a01b03851662000880565b949350505050565b6000620003a883836200091b565b6001600160a01b038116620004065760405162461bcd60e51b8152600401620002329062000d9a565b600a54604051631e51d6a760e11b81526001600160a01b0390911690633ca3ad4e906200043890849060040162000c1a565b60206040518083038186803b1580156200045157600080fd5b505afa15801562000466573d6000803e3d6000fd5b505050506040513d601f19601f820116820180604052508101906200048c919062000b37565b15620004ac5760405162461bcd60e51b8152600401620002329062000dd1565b600d546001600160a01b0382811691161415620004c9576200082e565b600b54600c54600d54604051631cd43d1160e31b81526000936001600160a01b039081169363e6a1e888936200050b9391831692309291169060040162000c91565b60806040518083038186803b1580156200052457600080fd5b505afa15801562000539573d6000803e3d6000fd5b505050506040513d601f19601f820116820180604052508101906200055f919062000bad565b5050915050600081600b0b1315620007d157600a54600b54600c54600d546040805160008152602081019091526001600160a01b03948516946339255d5b94811693635a5999e360e11b93620005c2939183169230929116906044810162000cb4565b60408051601f198184030181529181526020820180516001600160e01b03166001600160e01b03199485161790525160e085901b90921682526200060a929160040162000c2e565b600060405180830381600087803b1580156200062557600080fd5b505af11580156200063a573d6000803e3d6000fd5b505050506040513d6000823e601f3d908101601f1916820160405262000664919081019062000b59565b50600a54600b54600c5460405163e8e7e2d160e01b81526001600160a01b03938416936339255d5b9381169263317e182f60e11b929116908790849063e8e7e2d190620006b8908590309060040162000c77565b60206040518083038186803b158015620006d157600080fd5b505afa158015620006e6573d6000803e3d6000fd5b505050506040513d601f19601f820116820180604052508101906200070c919062000b8f565b6040805160008152602081019091526200072d939291906044810162000cf4565b60408051601f198184030181529181526020820180516001600160e01b03166001600160e01b03199485161790525160e085901b909216825262000775929160040162000c2e565b600060405180830381600087803b1580156200079057600080fd5b505af1158015620007a5573d6000803e3d6000fd5b505050506040513d6000823e601f3d908101601f19168201604052620007cf919081019062000b59565b505b600d80546001600160a01b0319166001600160a01b0384811691909117918290556040517f7dfb1d59db37a3fd2e15e796c189dcab714cdbb18650d68a1de58f8fa60718c9926200082492169062000c1a565b60405180910390a1505b50565b60006200083f83836200091b565b620008775750815460018181018455600084815260208082209093018490558454848252828601909352604090209190915562000384565b50600062000384565b600082815260018401602052604081205480620008e7575050604080518082018252838152602080820184815286546001818101895560008981528481209551600290930290950191825591519082015586548684528188019092529290912055620003a8565b82856000016001830381548110620008fb57fe5b9060005260206000209060020201600101819055506000915050620003a8565b60009081526001919091016020526040902054151590565b828054600181600116156101000203166002900490600052602060002090601f016020900481019282601f106200097657805160ff1916838001178555620009a6565b82800160010185558215620009a6579182015b82811115620009a657825182559160200191906001019062000989565b50620009b4929150620009b8565b5090565b5b80821115620009b45760008155600101620009b9565b600082601f830112620009e0578081fd5b81516001600160401b0380821115620009f7578283fd5b604051601f8301601f19168101602001828111828210171562000a18578485fd5b60405282815292508284830160200186101562000a3457600080fd5b62000a4783602083016020880162000e51565b50505092915050565b8051600b81900b81146200038457600080fd5b600080600080600080600060e0888a03121562000a7e578283fd5b875162000a8b8162000e84565b60208901519097506001600160401b038082111562000aa8578485fd5b62000ab68b838c01620009cf565b975060408a015191508082111562000acc578485fd5b5062000adb8a828b01620009cf565b955050606088015162000aee8162000e84565b608089015190945062000b018162000e84565b60a089015190935062000b148162000e84565b60c089015190925062000b278162000e84565b8091505092959891949750929550565b60006020828403121562000b49578081fd5b81518015158114620003a8578182fd5b60006020828403121562000b6b578081fd5b81516001600160401b0381111562000b81578182fd5b620003c784828501620009cf565b60006020828403121562000ba1578081fd5b620003a8838362000a50565b6000806000806080858703121562000bc3578384fd5b8451935062000bd6866020870162000a50565b6040860151606090960151949790965092505050565b6000815180845262000c0681602086016020860162000e51565b601f01601f19169290920160200192915050565b6001600160a01b0391909116815260200190565b6001600160a01b038316815260606020820181905260009062000c549083018462000bec565b8281036040938401526002815261060f60f31b6020820152919091019392505050565b6001600160a01b0392831681529116602082015260400190565b6001600160a01b0393841681529183166020830152909116604082015260600190565b6001600160a01b03858116825284811660208301528316604082015260806060820181905260009062000cea9083018462000bec565b9695505050505050565b6001600160a01b03858116825284166020820152600b83900b604082015260806060820181905260009062000cea9083018462000bec565b6020808252601c908201527f4552433136353a20696e76616c696420696e7465726661636520696400000000604082015260600190565b6020808252601c908201527f4552433732313a20746f6b656e20616c7265616479206d696e74656400000000604082015260600190565b6020808252601c908201527f4e6577207265636569766572206973207a65726f206164647265737300000000604082015260600190565b60208082526022908201527f4e65772072656365697665722063616e206e6f74206265206120737570657241604082015261070760f41b606082015260800190565b6020808252818101527f4552433732313a206d696e7420746f20746865207a65726f2061646472657373604082015260600190565b90815260200190565b60005b8381101562000e6e57818101518382015260200162000e54565b8381111562000e7e576000848401525b50505050565b6001600160a01b03811681146200082e57600080fd5b612f568062000eaa6000396000f3fe608060405234801561001057600080fd5b50600436106101a95760003560e01c80635f9e7d77116100f9578063b88d4fde11610097578063c87b56dd11610071578063c87b56dd1461036f578063d86ed3e514610382578063e5e01c1114610395578063e985e9c5146103a8576101a9565b8063b88d4fde14610341578063c40412b514610354578063c668286214610367576101a9565b806370a08231116100d357806370a0823114610300578063884d1f401461031357806395d89b4114610326578063a22cb4651461032e576101a9565b80635f9e7d77146102d25780636352211e146102e55780636c0360eb146102f8576101a9565b806323b872dd1161016657806330d9c9151161014057806330d9c9151461028657806342842e0e146102995780634f6ccce7146102ac57806353c11f99146102bf576101a9565b806323b872dd1461024957806328d2bf941461025c5780632f745c5914610273576101a9565b806301ffc9a7146101ae57806306fdde03146101d7578063081812fc146101ec578063095ea7b31461020c57806318160ddd14610221578063230dbd2914610236575b600080fd5b6101c16101bc36600461221c565b6103bb565b6040516101ce919061259b565b60405180910390f35b6101df6103da565b6040516101ce91906125a6565b6101ff6101fa366004612499565b610470565b6040516101ce919061254a565b61021f61021a3660046121bd565b6104bc565b005b610229610554565b6040516101ce9190612d72565b6101df610244366004612384565b610565565b61021f6102573660046120e6565b6105f7565b61026461062f565b6040516101ce93929190612d7b565b6102296102813660046121bd565b6106f2565b6101df6102943660046122e8565b61071d565b61021f6102a73660046120e6565b610737565b6102296102ba366004612499565b610752565b6101df6102cd366004612384565b610768565b6101df6102e03660046122e8565b61082f565b6101ff6102f3366004612499565b610849565b6101df610871565b61022961030e366004612092565b6108d2565b6101df6103213660046122e8565b61091b565b6101df610935565b61021f61033c366004612190565b610996565b61021f61034f366004612126565b610a64565b61021f610362366004612499565b610aa3565b6101df610ae9565b6101df61037d366004612499565b610b77565b6101df610390366004612384565b610bf0565b61021f6103a3366004612466565b610c89565b6101c16103b63660046120ae565b610ccc565b6001600160e01b03191660009081526020819052604090205460ff1690565b60068054604080516020601f60026000196101006001881615020190951694909404938401819004810282018101909252828152606093909290918301828280156104665780601f1061043b57610100808354040283529160200191610466565b820191906000526020600020905b81548152906001019060200180831161044957829003601f168201915b5050505050905090565b600061047b82610d30565b6104a05760405162461bcd60e51b815260040161049790612af7565b60405180910390fd5b506000908152600460205260409020546001600160a01b031690565b60006104c782610849565b9050806001600160a01b0316836001600160a01b031614156104fb5760405162461bcd60e51b815260040161049790612c0b565b806001600160a01b031661050d610d3d565b6001600160a01b031614806105295750610529816103b6610d3d565b6105455760405162461bcd60e51b8152600401610497906129cc565b61054f8383610d41565b505050565b60006105606002610daf565b905090565b6060898961057282610dba565b61058e5760405162461bcd60e51b8152600401610497906127bc565b61059781610dce565b6105b35760405162461bcd60e51b815260040161049790612729565b600a546001600160a01b031633146105dd5760405162461bcd60e51b815260040161049790612846565b6105e78585610e69565b9c9b505050505050505050505050565b610608610602610d3d565b82611228565b6106245760405162461bcd60e51b815260040161049790612c9b565b61054f8383836112a5565b600d54600090819081906001600160a01b0316156106ed57600b54600c54600d54604051631cd43d1160e31b81526001600160a01b039384169363e6a1e88893610685939082169230929091169060040161265a565b60806040518083038186803b15801561069d57600080fd5b505afa1580156106b1573d6000803e3d6000fd5b505050506040513d601f19601f820116820180604052508101906106d591906124b1565b5050600d549194506001600160a01b03909116925090505b909192565b6001600160a01b038216600090815260016020526040812061071490836113b3565b90505b92915050565b606060405162461bcd60e51b815260040161049790612d23565b61054f83838360405180602001604052806000815250610a64565b6000806107606002846113bf565b509392505050565b600a546060906001600160a01b031633146107955760405162461bcd60e51b815260040161049790612846565b61079e8a610dba565b15806107b057506107ae89610dce565b155b156107f45782828080601f01602080910402602001604051908101604052809392919081815260200183838082843760009201919091525092935061082292505050565b6108156040518060600160405280603c8152602001612ea9603c91396113dd565b61081f8383610e69565b90505b9998505050505050505050565b606060405162461bcd60e51b8152600401610497906127f3565b600061071782604051806060016040528060298152602001612e8060299139600291906113f4565b60098054604080516020601f60026000196101006001881615020190951694909404938401819004810282018101909252828152606093909290918301828280156104665780601f1061043b57610100808354040283529160200191610466565b60006001600160a01b0382166108fa5760405162461bcd60e51b815260040161049790612a29565b6001600160a01b038216600090815260016020526040902061071790610daf565b606060405162461bcd60e51b815260040161049790612c4c565b60078054604080516020601f60026000196101006001881615020190951694909404938401819004810282018101909252828152606093909290918301828280156104665780601f1061043b57610100808354040283529160200191610466565b61099e610d3d565b6001600160a01b0316826001600160a01b031614156109cf5760405162461bcd60e51b8152600401610497906128cc565b80600560006109dc610d3d565b6001600160a01b03908116825260208083019390935260409182016000908120918716808252919093529120805460ff191692151592909217909155610a20610d3d565b6001600160a01b03167f17307eab39ab6107e8899845ad3d59bd9653f200f220920489ca2b5937696c3183604051610a58919061259b565b60405180910390a35050565b610a75610a6f610d3d565b83611228565b610a915760405162461bcd60e51b815260040161049790612c9b565b610a9d84848484611401565b50505050565b610aad6001610849565b6001600160a01b0316336001600160a01b031614610add5760405162461bcd60e51b815260040161049790612b43565b610ae681611434565b50565b600e805460408051602060026001851615610100026000190190941693909304601f81018490048402820184019092528181529291830182828015610b6f5780601f10610b4457610100808354040283529160200191610b6f565b820191906000526020600020905b815481529060010190602001808311610b5257829003601f168201915b505050505081565b6060610b8282610d30565b610b9e5760405162461bcd60e51b815260040161049790612bbc565b6060610ba8610871565b90506000815111610bc85760405180602001604052806000815250610be9565b80604051602001610bd9919061252e565b6040516020818303038152906040525b9392505050565b60608989610bfd82610dba565b610c195760405162461bcd60e51b8152600401610497906127bc565b610c2281610dce565b610c3e5760405162461bcd60e51b815260040161049790612729565b600a546001600160a01b03163314610c685760405162461bcd60e51b815260040161049790612846565b6105dd6040518060600160405280603c8152602001612ee5603c91396113dd565b610c936001610849565b6001600160a01b0316336001600160a01b031614610cc35760405162461bcd60e51b815260040161049790612b43565b610ae6816113dd565b6001600160a01b03918216600090815260056020908152604080832093909416825291909152205460ff1690565b60006107148383611501565b6000610d1c84846001600160a01b03851661154b565b949350505050565b600061071483836115e2565b6000610717600283610d24565b3390565b600081815260046020526040902080546001600160a01b0319166001600160a01b0384169081179091558190610d7682610849565b6001600160a01b03167f8c5be1e5ebec7d5bd14f71427d1e84f3dd0314c0f7b2291e5b200ac8c7c3b92560405160405180910390a45050565b6000610717826115fa565b600c546001600160a01b0390811691161490565b60007fa9214cc96615e0085d3bb077758db69497dc2dce3b2b1e97bc93c3d18d83efd3826001600160a01b0316637730599e6040518163ffffffff1660e01b815260040160206040518083038186803b158015610e2a57600080fd5b505afa158015610e3e573d6000803e3d6000fd5b505050506040513d601f19601f82011682018060405250810190610e629190612204565b1492915050565b606082828080601f0160208091040260200160405190810160405280939291908181526020018383808284376000920182905250600b54600c5460405163e8e7e2d160e01b815296975091956001600160a01b03918216955063e8e7e2d19450610edb93509116903090600401612640565b60206040518083038186803b158015610ef357600080fd5b505afa158015610f07573d6000803e3d6000fd5b505050506040513d601f19601f82011682018060405250810190610f2b919061244b565b600b54600c54600d54604051631cd43d1160e31b81529394506000936001600160a01b039384169363e6a1e88893610f6f939082169230929091169060040161265a565b60806040518083038186803b158015610f8757600080fd5b505afa158015610f9b573d6000803e3d6000fd5b505050506040513d601f19601f82011682018060405250810190610fbf91906124b1565b5090925050508181016000600b82900b1215610fd9576000035b600b81900b6110d757600a54600b54600c54600d546040805160008152602081019091526001600160a01b0394851694634329d29394811693635a5999e360e11b93611031939183169230929116906044810161267d565b60408051601f198184030181529181526020820180516001600160e01b03166001600160e01b03199485161790525160e085901b9092168252611079929189906004016125f7565b600060405180830381600087803b15801561109357600080fd5b505af11580156110a7573d6000803e3d6000fd5b505050506040513d6000823e601f3d908101601f191682016040526110cf9190810190612287565b50935061121f565b600b82900b1561112f57600a54600b54600c54600d546040805160008152602081019091526001600160a01b0394851694634329d293948116936328104d3160e11b93611031939183169216908890604481016126b1565b600a54600b54600c54600d546040805160008152602081019091526001600160a01b0394851694634329d2939481169363317e182f60e11b9361117d939183169216908890604481016126b1565b60408051601f198184030181529181526020820180516001600160e01b03166001600160e01b03199485161790525160e085901b90921682526111c5929189906004016125f7565b600060405180830381600087803b1580156111df57600080fd5b505af11580156111f3573d6000803e3d6000fd5b505050506040513d6000823e601f3d908101601f1916820160405261121b9190810190612287565b5093505b50505092915050565b600061123382610d30565b61124f5760405162461bcd60e51b815260040161049790612980565b600061125a83610849565b9050806001600160a01b0316846001600160a01b031614806112955750836001600160a01b031661128a84610470565b6001600160a01b0316145b80610d1c5750610d1c8185610ccc565b826001600160a01b03166112b882610849565b6001600160a01b0316146112de5760405162461bcd60e51b815260040161049790612b73565b6001600160a01b0382166113045760405162461bcd60e51b815260040161049790612888565b61130f8383836115fe565b61131a600082610d41565b6001600160a01b038316600090815260016020526040902061133c9082611607565b506001600160a01b038216600090815260016020526040902061135f9082610cfa565b5061136c60028284610d06565b5080826001600160a01b0316846001600160a01b03167fddf252ad1be2c89b69c2b068fc378daa952ba7f163c4a11628f55a4df523b3ef60405160405180910390a4505050565b60006107148383611613565b60008080806113ce8686611658565b909450925050505b9250929050565b80516113f0906009906020840190611ed4565b5050565b6000610d1c8484846116b4565b61140c8484846112a5565b61141884848484611713565b610a9d5760405162461bcd60e51b81526004016104979061276a565b600061143f82610849565b905061144d816000846115fe565b611458600083610d41565b600082815260086020526040902054600260001961010060018416150201909116041561149657600082815260086020526040812061149691611f52565b6001600160a01b03811660009081526001602052604090206114b89083611607565b506114c46002836117f2565b5060405182906000906001600160a01b038416907fddf252ad1be2c89b69c2b068fc378daa952ba7f163c4a11628f55a4df523b3ef908390a45050565b600061150d83836115e2565b61154357508154600181810184556000848152602080822090930184905584548482528286019093526040902091909155610717565b506000610717565b6000828152600184016020526040812054806115b0575050604080518082018252838152602080820184815286546001818101895560008981528481209551600290930290950191825591519082015586548684528188019092529290912055610be9565b828560000160018303815481106115c357fe5b9060005260206000209060020201600101819055506000915050610be9565b60009081526001919091016020526040902054151590565b5490565b61054f826117fe565b60006107148383611c24565b815460009082106116365760405162461bcd60e51b8152600401610497906126e7565b82600001828154811061164557fe5b9060005260206000200154905092915050565b81546000908190831061167d5760405162461bcd60e51b815260040161049790612ab5565b600084600001848154811061168e57fe5b906000526020600020906002020190508060000154816001015492509250509250929050565b600082815260018401602052604081205482816116e45760405162461bcd60e51b815260040161049791906125a6565b508460000160018203815481106116f757fe5b9060005260206000209060020201600101549150509392505050565b6000611727846001600160a01b0316611cf1565b61173357506001610d1c565b60606117bb630a85bd0160e11b611748610d3d565b88878760405160240161175e949392919061255e565b604051602081830303815290604052906001600160e01b0319166020820180516001600160e01b038381831617835250505050604051806060016040528060328152602001612e4e603291396001600160a01b0388169190611cf7565b90506000818060200190518101906117d39190612238565b6001600160e01b031916630a85bd0160e11b1492505050949350505050565b60006107148383611d06565b6001600160a01b0381166118245760405162461bcd60e51b815260040161049790612903565b600a54604051631e51d6a760e11b81526001600160a01b0390911690633ca3ad4e9061185490849060040161254a565b60206040518083038186803b15801561186c57600080fd5b505afa158015611880573d6000803e3d6000fd5b505050506040513d601f19601f820116820180604052508101906118a491906121e8565b156118c15760405162461bcd60e51b815260040161049790612a73565b600d546001600160a01b03828116911614156118dc57610ae6565b600b54600c54600d54604051631cd43d1160e31b81526000936001600160a01b039081169363e6a1e8889361191c9391831692309291169060040161265a565b60806040518083038186803b15801561193457600080fd5b505afa158015611948573d6000803e3d6000fd5b505050506040513d601f19601f8201168201806040525081019061196c91906124b1565b5050915050600081600b0b1315611bc757600a54600b54600c54600d546040805160008152602081019091526001600160a01b03948516946339255d5b94811693635a5999e360e11b936119cc939183169230929116906044810161267d565b60408051601f198184030181529181526020820180516001600160e01b03166001600160e01b03199485161790525160e085901b9092168252611a1292916004016125b9565b600060405180830381600087803b158015611a2c57600080fd5b505af1158015611a40573d6000803e3d6000fd5b505050506040513d6000823e601f3d908101601f19168201604052611a689190810190612254565b50600a54600b54600c5460405163e8e7e2d160e01b81526001600160a01b03938416936339255d5b9381169263317e182f60e11b929116908790849063e8e7e2d190611aba9085903090600401612640565b60206040518083038186803b158015611ad257600080fd5b505afa158015611ae6573d6000803e3d6000fd5b505050506040513d601f19601f82011682018060405250810190611b0a919061244b565b604080516000815260208101909152611b2993929190604481016126b1565b60408051601f198184030181529181526020820180516001600160e01b03166001600160e01b03199485161790525160e085901b9092168252611b6f92916004016125b9565b600060405180830381600087803b158015611b8957600080fd5b505af1158015611b9d573d6000803e3d6000fd5b505050506040513d6000823e601f3d908101601f19168201604052611bc59190810190612254565b505b600d80546001600160a01b0319166001600160a01b0384811691909117918290556040517f7dfb1d59db37a3fd2e15e796c189dcab714cdbb18650d68a1de58f8fa60718c992611c1892169061254a565b60405180910390a15050565b60008181526001830160205260408120548015611ce05783546000198083019190810190600090879083908110611c5757fe5b9060005260206000200154905080876000018481548110611c7457fe5b600091825260208083209091019290925582815260018981019092526040902090840190558654879080611ca457fe5b60019003818190600052602060002001600090559055866001016000878152602001908152602001600020600090556001945050505050610717565b6000915050610717565b5092915050565b3b151590565b6060610d1c8484600085611dda565b60008181526001830160205260408120548015611ce05783546000198083019190810190600090879083908110611d3957fe5b9060005260206000209060020201905080876000018481548110611d5957fe5b600091825260208083208454600290930201918255600193840154918401919091558354825289830190526040902090840190558654879080611d9857fe5b60008281526020808220600260001990940193840201828155600190810183905592909355888152898201909252604082209190915594506107179350505050565b606082471015611dfc5760405162461bcd60e51b81526004016104979061293a565b611e0585611cf1565b611e215760405162461bcd60e51b815260040161049790612cec565b60006060866001600160a01b03168587604051611e3e919061252e565b60006040518083038185875af1925050503d8060008114611e7b576040519150601f19603f3d011682016040523d82523d6000602084013e611e80565b606091505b5091509150611e90828286611e9b565b979650505050505050565b60608315611eaa575081610be9565b825115611eba5782518084602001fd5b8160405162461bcd60e51b815260040161049791906125a6565b828054600181600116156101000203166002900490600052602060002090601f016020900481019282601f10611f1557805160ff1916838001178555611f42565b82800160010185558215611f42579182015b82811115611f42578251825591602001919060010190611f27565b50611f4e929150611f92565b5090565b50805460018160011615610100020316600290046000825580601f10611f785750610ae6565b601f016020900490600052602060002090810190610ae691905b5b80821115611f4e5760008155600101611f93565b60008083601f840112611fb8578182fd5b50813567ffffffffffffffff811115611fcf578182fd5b6020830191508360208285010111156113d657600080fd5b600082601f830112611ff7578081fd5b813561200a61200582612dc4565b612d9d565b915080825283602082850101111561202157600080fd5b8060208401602084013760009082016020015292915050565b600082601f83011261204a578081fd5b815161205861200582612dc4565b915080825283602082850101111561206f57600080fd5b611cea816020840160208601612de8565b8051600b81900b811461071757600080fd5b6000602082840312156120a3578081fd5b8135610be981612e14565b600080604083850312156120c0578081fd5b82356120cb81612e14565b915060208301356120db81612e14565b809150509250929050565b6000806000606084860312156120fa578081fd5b833561210581612e14565b9250602084013561211581612e14565b929592945050506040919091013590565b6000806000806080858703121561213b578081fd5b843561214681612e14565b9350602085013561215681612e14565b925060408501359150606085013567ffffffffffffffff811115612178578182fd5b61218487828801611fe7565b91505092959194509250565b600080604083850312156121a2578182fd5b82356121ad81612e14565b915060208301356120db81612e29565b600080604083850312156121cf578182fd5b82356121da81612e14565b946020939093013593505050565b6000602082840312156121f9578081fd5b8151610be981612e29565b600060208284031215612215578081fd5b5051919050565b60006020828403121561222d578081fd5b8135610be981612e37565b600060208284031215612249578081fd5b8151610be981612e37565b600060208284031215612265578081fd5b815167ffffffffffffffff81111561227b578182fd5b610d1c8482850161203a565b60008060408385031215612299578182fd5b825167ffffffffffffffff808211156122b0578384fd5b6122bc8683870161203a565b935060208501519150808211156122d1578283fd5b506122de8582860161203a565b9150509250929050565b600080600080600080600060a0888a031215612302578485fd5b873561230d81612e14565b9650602088013561231d81612e14565b955060408801359450606088013567ffffffffffffffff80821115612340578485fd5b61234c8b838c01611fa7565b909650945060808a0135915080821115612364578384fd5b506123718a828b01611fa7565b989b979a50959850939692959293505050565b600080600080600080600080600060c08a8c0312156123a1578283fd5b89356123ac81612e14565b985060208a01356123bc81612e14565b975060408a0135965060608a013567ffffffffffffffff808211156123df578485fd5b6123eb8d838e01611fa7565b909850965060808c0135915080821115612403578485fd5b61240f8d838e01611fa7565b909650945060a08c0135915080821115612427578384fd5b506124348c828d01611fa7565b915080935050809150509295985092959850929598565b60006020828403121561245c578081fd5b6107148383612080565b600060208284031215612477578081fd5b813567ffffffffffffffff81111561248d578182fd5b610d1c84828501611fe7565b6000602082840312156124aa578081fd5b5035919050565b600080600080608085870312156124c6578182fd5b845193506124d78660208701612080565b6040860151606090960151949790965092505050565b60008151808452612505816020860160208601612de8565b601f01601f19169290920160200192915050565b6002815261060f60f31b602082015260400190565b60008251612540818460208701612de8565b9190910192915050565b6001600160a01b0391909116815260200190565b6001600160a01b0385811682528416602082015260408101839052608060608201819052600090612591908301846124ed565b9695505050505050565b901515815260200190565b60006020825261071460208301846124ed565b6001600160a01b03831681526060602082018190526000906125dd908301846124ed565b82810360408401526125ee81612519565b95945050505050565b6001600160a01b038416815260806020820181905260009061261b908301856124ed565b828103604084015261262c81612519565b9050828103606084015261259181856124ed565b6001600160a01b0392831681529116602082015260400190565b6001600160a01b0393841681529183166020830152909116604082015260600190565b6001600160a01b038581168252848116602083015283166040820152608060608201819052600090612591908301846124ed565b6001600160a01b03858116825284166020820152600b83900b6040820152608060608201819052600090612591908301846124ed565b60208082526022908201527f456e756d657261626c655365743a20696e646578206f7574206f6620626f756e604082015261647360f01b606082015260800190565b60208082526021908201527f5265646972656374416c6c3a206f6e6c7920434641763120737570706f7274656040820152601960fa1b606082015260800190565b60208082526032908201527f4552433732313a207472616e7366657220746f206e6f6e20455243373231526560408201527131b2b4bb32b91034b6b83632b6b2b73a32b960711b606082015260800190565b6020808252601f908201527f5265646972656374416c6c3a206e6f7420616363657074656420746f6b656e00604082015260600190565b60208082526033908201527f556e737570706f727465642063616c6c6261636b202d20204265666f7265204160408201527219dc99595b595b9d0815195c9b5a5b985d1959606a1b606082015260800190565b60208082526022908201527f5265646972656374416c6c3a20737570706f7274206f6e6c79206f6e6520686f6040820152611cdd60f21b606082015260800190565b60208082526024908201527f4552433732313a207472616e7366657220746f20746865207a65726f206164646040820152637265737360e01b606082015260800190565b60208082526019908201527f4552433732313a20617070726f766520746f2063616c6c657200000000000000604082015260600190565b6020808252601c908201527f4e6577207265636569766572206973207a65726f206164647265737300000000604082015260600190565b60208082526026908201527f416464726573733a20696e73756666696369656e742062616c616e636520666f6040820152651c8818d85b1b60d21b606082015260800190565b6020808252602c908201527f4552433732313a206f70657261746f7220717565727920666f72206e6f6e657860408201526b34b9ba32b73a103a37b5b2b760a11b606082015260800190565b60208082526038908201527f4552433732313a20617070726f76652063616c6c6572206973206e6f74206f7760408201527f6e6572206e6f7220617070726f76656420666f7220616c6c0000000000000000606082015260800190565b6020808252602a908201527f4552433732313a2062616c616e636520717565727920666f7220746865207a65604082015269726f206164647265737360b01b606082015260800190565b60208082526022908201527f4e65772072656365697665722063616e206e6f74206265206120737570657241604082015261070760f41b606082015260800190565b60208082526022908201527f456e756d657261626c654d61703a20696e646578206f7574206f6620626f756e604082015261647360f01b606082015260800190565b6020808252602c908201527f4552433732313a20617070726f76656420717565727920666f72206e6f6e657860408201526b34b9ba32b73a103a37b5b2b760a11b606082015260800190565b6020808252601690820152752737ba103a34329037bbb732b91037b3102a37b5b2b760511b604082015260600190565b60208082526029908201527f4552433732313a207472616e73666572206f6620746f6b656e2074686174206960408201526839903737ba1037bbb760b91b606082015260800190565b6020808252602f908201527f4552433732314d657461646174613a2055524920717565727920666f72206e6f60408201526e3732bc34b9ba32b73a103a37b5b2b760891b606082015260800190565b60208082526021908201527f4552433732313a20617070726f76616c20746f2063757272656e74206f776e656040820152603960f91b606082015260800190565b6020808252602f908201527f556e737570706f727465642063616c6c6261636b202d204265666f726520416760408201526e1c99595b595b9d081d5c19185d1959608a1b606082015260800190565b60208082526031908201527f4552433732313a207472616e736665722063616c6c6572206973206e6f74206f6040820152701ddb995c881b9bdc88185c1c1c9bdd9959607a1b606082015260800190565b6020808252601d908201527f416464726573733a2063616c6c20746f206e6f6e2d636f6e7472616374000000604082015260600190565b6020808252602f908201527f556e737570706f727465642063616c6c6261636b202d204265666f726520416760408201526e1c99595b595b9d0810dc99585d1959608a1b606082015260800190565b90815260200190565b9283526001600160a01b03919091166020830152600b0b604082015260600190565b60405181810167ffffffffffffffff81118282101715612dbc57600080fd5b604052919050565b600067ffffffffffffffff821115612dda578081fd5b50601f01601f191660200190565b60005b83811015612e03578181015183820152602001612deb565b83811115610a9d5750506000910152565b6001600160a01b0381168114610ae657600080fd5b8015158114610ae657600080fd5b6001600160e01b031981168114610ae657600080fdfe4552433732313a207472616e7366657220746f206e6f6e20455243373231526563656976657220696d706c656d656e7465724552433732313a206f776e657220717565727920666f72206e6f6e6578697374656e7420746f6b656e697066733a2f2f516d564e66564c79374258416a6a314d50766a544454674857377a77686f486a67324d57744d5574366e4e665a732f312e6a736f6e697066733a2f2f516d5a36575770416143374e6f393638384e5252703241616779695a657655526544344176794a5031583643315a2f312e6a736f6ea2646970667358221220e576ae59dd1f5919c021ade09d24beecf3cf6c04bc57c88be1d407deafe8312964736f6c63430007010033697066733a2f2f516d564e66564c79374258416a6a314d50766a544454674857377a77686f486a67324d57744d5574366e4e665a732f312e6a736f6e",
  "devdoc": {
    "kind": "dev",
    "methods": {
      "approve(address,uint256)": {
        "details": "See {IERC721-approve}."
      },
      "balanceOf(address)": {
        "details": "See {IERC721-balanceOf}."
      },
      "baseURI()": {
        "details": "Returns the base URI set via {_setBaseURI}. This will be automatically added as a prefix in {tokenURI} to each token's URI, or to the token ID if no specific URI is set for that token ID."
      },
      "getApproved(uint256)": {
        "details": "See {IERC721-getApproved}."
      },
      "isApprovedForAll(address,address)": {
        "details": "See {IERC721-isApprovedForAll}."
      },
      "name()": {
        "details": "See {IERC721Metadata-name}."
      },
      "ownerOf(uint256)": {
        "details": "See {IERC721-ownerOf}."
      },
      "safeTransferFrom(address,address,uint256)": {
        "details": "See {IERC721-safeTransferFrom}."
      },
      "safeTransferFrom(address,address,uint256,bytes)": {
        "details": "See {IERC721-safeTransferFrom}."
      },
      "setApprovalForAll(address,bool)": {
        "details": "See {IERC721-setApprovalForAll}."
      },
      "supportsInterface(bytes4)": {
        "details": "See {IERC165-supportsInterface}. Time complexity O(1), guaranteed to always use less than 30 000 gas."
      },
      "symbol()": {
        "details": "See {IERC721Metadata-symbol}."
      },
      "tokenByIndex(uint256)": {
        "details": "See {IERC721Enumerable-tokenByIndex}."
      },
      "tokenOfOwnerByIndex(address,uint256)": {
        "details": "See {IERC721Enumerable-tokenOfOwnerByIndex}."
      },
      "tokenURI(uint256)": {
        "details": "See {IERC721Metadata-tokenURI}."
      },
      "totalSupply()": {
        "details": "See {IERC721Enumerable-totalSupply}."
      },
      "transferFrom(address,address,uint256)": {
        "details": "See {IERC721-transferFrom}."
      }
    },
    "version": 1
  },
  "userdoc": {
    "kind": "user",
    "methods": {},
    "version": 1
  },
  "storageLayout": {
    "storage": [
      {
        "astId": 13,
        "contract": "contracts/BrightStream.sol:BrightIDStream",
        "label": "_supportedInterfaces",
        "offset": 0,
        "slot": "0",
        "type": "t_mapping(t_bytes4,t_bool)"
      },
      {
        "astId": 547,
        "contract": "contracts/BrightStream.sol:BrightIDStream",
        "label": "_holderTokens",
        "offset": 0,
        "slot": "1",
        "type": "t_mapping(t_address,t_struct(UintSet)3072_storage)"
      },
      {
        "astId": 549,
        "contract": "contracts/BrightStream.sol:BrightIDStream",
        "label": "_tokenOwners",
        "offset": 0,
        "slot": "2",
        "type": "t_struct(UintToAddressMap)2449_storage"
      },
      {
        "astId": 553,
        "contract": "contracts/BrightStream.sol:BrightIDStream",
        "label": "_tokenApprovals",
        "offset": 0,
        "slot": "4",
        "type": "t_mapping(t_uint256,t_address)"
      },
      {
        "astId": 559,
        "contract": "contracts/BrightStream.sol:BrightIDStream",
        "label": "_operatorApprovals",
        "offset": 0,
        "slot": "5",
        "type": "t_mapping(t_address,t_mapping(t_address,t_bool))"
      },
      {
        "astId": 561,
        "contract": "contracts/BrightStream.sol:BrightIDStream",
        "label": "_name",
        "offset": 0,
        "slot": "6",
        "type": "t_string_storage"
      },
      {
        "astId": 563,
        "contract": "contracts/BrightStream.sol:BrightIDStream",
        "label": "_symbol",
        "offset": 0,
        "slot": "7",
        "type": "t_string_storage"
      },
      {
        "astId": 567,
        "contract": "contracts/BrightStream.sol:BrightIDStream",
        "label": "_tokenURIs",
        "offset": 0,
        "slot": "8",
        "type": "t_mapping(t_uint256,t_string_storage)"
      },
      {
        "astId": 569,
        "contract": "contracts/BrightStream.sol:BrightIDStream",
        "label": "_baseURI",
        "offset": 0,
        "slot": "9",
        "type": "t_string_storage"
      },
      {
        "astId": 5278,
        "contract": "contracts/BrightStream.sol:BrightIDStream",
        "label": "_host",
        "offset": 0,
        "slot": "10",
        "type": "t_contract(ISuperfluid)4862"
      },
      {
        "astId": 5280,
        "contract": "contracts/BrightStream.sol:BrightIDStream",
        "label": "_cfa",
        "offset": 0,
        "slot": "11",
        "type": "t_contract(IConstantFlowAgreementV1)3557"
      },
      {
        "astId": 5282,
        "contract": "contracts/BrightStream.sol:BrightIDStream",
        "label": "_acceptedToken",
        "offset": 0,
        "slot": "12",
        "type": "t_contract(ISuperToken)4366"
      },
      {
        "astId": 5284,
        "contract": "contracts/BrightStream.sol:BrightIDStream",
        "label": "_receiver",
        "offset": 0,
        "slot": "13",
        "type": "t_address"
      },
      {
        "astId": 5287,
        "contract": "contracts/BrightStream.sol:BrightIDStream",
        "label": "baseExtension",
        "offset": 0,
        "slot": "14",
        "type": "t_string_storage"
      }
    ],
    "types": {
      "t_address": {
        "encoding": "inplace",
        "label": "address",
        "numberOfBytes": "20"
      },
      "t_array(t_bytes32)dyn_storage": {
        "base": "t_bytes32",
        "encoding": "dynamic_array",
        "label": "bytes32[]",
        "numberOfBytes": "32"
      },
      "t_array(t_struct(MapEntry)2123_storage)dyn_storage": {
        "base": "t_struct(MapEntry)2123_storage",
        "encoding": "dynamic_array",
        "label": "struct EnumerableMap.MapEntry[]",
        "numberOfBytes": "32"
      },
      "t_bool": {
        "encoding": "inplace",
        "label": "bool",
        "numberOfBytes": "1"
      },
      "t_bytes32": {
        "encoding": "inplace",
        "label": "bytes32",
        "numberOfBytes": "32"
      },
      "t_bytes4": {
        "encoding": "inplace",
        "label": "bytes4",
        "numberOfBytes": "4"
      },
      "t_contract(IConstantFlowAgreementV1)3557": {
        "encoding": "inplace",
        "label": "contract IConstantFlowAgreementV1",
        "numberOfBytes": "20"
      },
      "t_contract(ISuperToken)4366": {
        "encoding": "inplace",
        "label": "contract ISuperToken",
        "numberOfBytes": "20"
      },
      "t_contract(ISuperfluid)4862": {
        "encoding": "inplace",
        "label": "contract ISuperfluid",
        "numberOfBytes": "20"
      },
      "t_mapping(t_address,t_bool)": {
        "encoding": "mapping",
        "key": "t_address",
        "label": "mapping(address => bool)",
        "numberOfBytes": "32",
        "value": "t_bool"
      },
      "t_mapping(t_address,t_mapping(t_address,t_bool))": {
        "encoding": "mapping",
        "key": "t_address",
        "label": "mapping(address => mapping(address => bool))",
        "numberOfBytes": "32",
        "value": "t_mapping(t_address,t_bool)"
      },
      "t_mapping(t_address,t_struct(UintSet)3072_storage)": {
        "encoding": "mapping",
        "key": "t_address",
        "label": "mapping(address => struct EnumerableSet.UintSet)",
        "numberOfBytes": "32",
        "value": "t_struct(UintSet)3072_storage"
      },
      "t_mapping(t_bytes32,t_uint256)": {
        "encoding": "mapping",
        "key": "t_bytes32",
        "label": "mapping(bytes32 => uint256)",
        "numberOfBytes": "32",
        "value": "t_uint256"
      },
      "t_mapping(t_bytes4,t_bool)": {
        "encoding": "mapping",
        "key": "t_bytes4",
        "label": "mapping(bytes4 => bool)",
        "numberOfBytes": "32",
        "value": "t_bool"
      },
      "t_mapping(t_uint256,t_address)": {
        "encoding": "mapping",
        "key": "t_uint256",
        "label": "mapping(uint256 => address)",
        "numberOfBytes": "32",
        "value": "t_address"
      },
      "t_mapping(t_uint256,t_string_storage)": {
        "encoding": "mapping",
        "key": "t_uint256",
        "label": "mapping(uint256 => string)",
        "numberOfBytes": "32",
        "value": "t_string_storage"
      },
      "t_string_storage": {
        "encoding": "bytes",
        "label": "string",
        "numberOfBytes": "32"
      },
      "t_struct(Map)2131_storage": {
        "encoding": "inplace",
        "label": "struct EnumerableMap.Map",
        "members": [
          {
            "astId": 2126,
            "contract": "contracts/BrightStream.sol:BrightIDStream",
            "label": "_entries",
            "offset": 0,
            "slot": "0",
            "type": "t_array(t_struct(MapEntry)2123_storage)dyn_storage"
          },
          {
            "astId": 2130,
            "contract": "contracts/BrightStream.sol:BrightIDStream",
            "label": "_indexes",
            "offset": 0,
            "slot": "1",
            "type": "t_mapping(t_bytes32,t_uint256)"
          }
        ],
        "numberOfBytes": "64"
      },
      "t_struct(MapEntry)2123_storage": {
        "encoding": "inplace",
        "label": "struct EnumerableMap.MapEntry",
        "members": [
          {
            "astId": 2120,
            "contract": "contracts/BrightStream.sol:BrightIDStream",
            "label": "_key",
            "offset": 0,
            "slot": "0",
            "type": "t_bytes32"
          },
          {
            "astId": 2122,
            "contract": "contracts/BrightStream.sol:BrightIDStream",
            "label": "_value",
            "offset": 0,
            "slot": "1",
            "type": "t_bytes32"
          }
        ],
        "numberOfBytes": "64"
      },
      "t_struct(Set)2686_storage": {
        "encoding": "inplace",
        "label": "struct EnumerableSet.Set",
        "members": [
          {
            "astId": 2681,
            "contract": "contracts/BrightStream.sol:BrightIDStream",
            "label": "_values",
            "offset": 0,
            "slot": "0",
            "type": "t_array(t_bytes32)dyn_storage"
          },
          {
            "astId": 2685,
            "contract": "contracts/BrightStream.sol:BrightIDStream",
            "label": "_indexes",
            "offset": 0,
            "slot": "1",
            "type": "t_mapping(t_bytes32,t_uint256)"
          }
        ],
        "numberOfBytes": "64"
      },
      "t_struct(UintSet)3072_storage": {
        "encoding": "inplace",
        "label": "struct EnumerableSet.UintSet",
        "members": [
          {
            "astId": 3071,
            "contract": "contracts/BrightStream.sol:BrightIDStream",
            "label": "_inner",
            "offset": 0,
            "slot": "0",
            "type": "t_struct(Set)2686_storage"
          }
        ],
        "numberOfBytes": "64"
      },
      "t_struct(UintToAddressMap)2449_storage": {
        "encoding": "inplace",
        "label": "struct EnumerableMap.UintToAddressMap",
        "members": [
          {
            "astId": 2448,
            "contract": "contracts/BrightStream.sol:BrightIDStream",
            "label": "_inner",
            "offset": 0,
            "slot": "0",
            "type": "t_struct(Map)2131_storage"
          }
        ],
        "numberOfBytes": "64"
      },
      "t_uint256": {
        "encoding": "inplace",
        "label": "uint256",
        "numberOfBytes": "32"
      }
    }
  }
}